{
  "_format": "hh-sol-artifact-1",
  "contractName": "MoonappToken",
  "sourceName": "contracts/MoonappToken.sol",
  "abi": [
    {
      "inputs": [
        {
          "internalType": "string",
          "name": "_name",
          "type": "string"
        },
        {
          "internalType": "string",
          "name": "_symbol",
          "type": "string"
        },
        {
          "internalType": "uint256",
          "name": "_initialSupply",
          "type": "uint256"
        },
        {
          "internalType": "uint256",
          "name": "_totalSupplyLimit",
          "type": "uint256"
        }
      ],
      "stateMutability": "nonpayable",
      "type": "constructor"
    },
    {
      "anonymous": false,
      "inputs": [
        {
          "indexed": true,
          "internalType": "address",
          "name": "owner",
          "type": "address"
        },
        {
          "indexed": true,
          "internalType": "address",
          "name": "spender",
          "type": "address"
        },
        {
          "indexed": false,
          "internalType": "uint256",
          "name": "value",
          "type": "uint256"
        }
      ],
      "name": "Approval",
      "type": "event"
    },
    {
      "anonymous": false,
      "inputs": [
        {
          "indexed": true,
          "internalType": "address",
          "name": "from",
          "type": "address"
        },
        {
          "indexed": true,
          "internalType": "address",
          "name": "to",
          "type": "address"
        },
        {
          "indexed": false,
          "internalType": "uint256",
          "name": "value",
          "type": "uint256"
        }
      ],
      "name": "Transfer",
      "type": "event"
    },
    {
      "inputs": [],
      "name": "admin",
      "outputs": [
        {
          "internalType": "address",
          "name": "",
          "type": "address"
        }
      ],
      "stateMutability": "view",
      "type": "function"
    },
    {
      "inputs": [
        {
          "internalType": "address",
          "name": "owner",
          "type": "address"
        },
        {
          "internalType": "address",
          "name": "spender",
          "type": "address"
        }
      ],
      "name": "allowance",
      "outputs": [
        {
          "internalType": "uint256",
          "name": "",
          "type": "uint256"
        }
      ],
      "stateMutability": "view",
      "type": "function"
    },
    {
      "inputs": [
        {
          "internalType": "address",
          "name": "spender",
          "type": "address"
        },
        {
          "internalType": "uint256",
          "name": "amount",
          "type": "uint256"
        }
      ],
      "name": "approve",
      "outputs": [
        {
          "internalType": "bool",
          "name": "",
          "type": "bool"
        }
      ],
      "stateMutability": "nonpayable",
      "type": "function"
    },
    {
      "inputs": [
        {
          "internalType": "address",
          "name": "account",
          "type": "address"
        }
      ],
      "name": "balanceOf",
      "outputs": [
        {
          "internalType": "uint256",
          "name": "",
          "type": "uint256"
        }
      ],
      "stateMutability": "view",
      "type": "function"
    },
    {
      "inputs": [
        {
          "internalType": "uint256",
          "name": "amount",
          "type": "uint256"
        }
      ],
      "name": "burn",
      "outputs": [],
      "stateMutability": "nonpayable",
      "type": "function"
    },
    {
      "inputs": [
        {
          "internalType": "address",
          "name": "account",
          "type": "address"
        },
        {
          "internalType": "uint256",
          "name": "amount",
          "type": "uint256"
        }
      ],
      "name": "burnFrom",
      "outputs": [],
      "stateMutability": "nonpayable",
      "type": "function"
    },
    {
      "inputs": [
        {
          "internalType": "address",
          "name": "newAdmin",
          "type": "address"
        }
      ],
      "name": "changeAdmin",
      "outputs": [],
      "stateMutability": "nonpayable",
      "type": "function"
    },
    {
      "inputs": [],
      "name": "decimals",
      "outputs": [
        {
          "internalType": "uint8",
          "name": "",
          "type": "uint8"
        }
      ],
      "stateMutability": "view",
      "type": "function"
    },
    {
      "inputs": [
        {
          "internalType": "address",
          "name": "spender",
          "type": "address"
        },
        {
          "internalType": "uint256",
          "name": "subtractedValue",
          "type": "uint256"
        }
      ],
      "name": "decreaseAllowance",
      "outputs": [
        {
          "internalType": "bool",
          "name": "",
          "type": "bool"
        }
      ],
      "stateMutability": "nonpayable",
      "type": "function"
    },
    {
      "inputs": [
        {
          "internalType": "address",
          "name": "spender",
          "type": "address"
        },
        {
          "internalType": "uint256",
          "name": "addedValue",
          "type": "uint256"
        }
      ],
      "name": "increaseAllowance",
      "outputs": [
        {
          "internalType": "bool",
          "name": "",
          "type": "bool"
        }
      ],
      "stateMutability": "nonpayable",
      "type": "function"
    },
    {
      "inputs": [
        {
          "internalType": "address",
          "name": "account",
          "type": "address"
        },
        {
          "internalType": "uint256",
          "name": "amount",
          "type": "uint256"
        }
      ],
      "name": "mint",
      "outputs": [],
      "stateMutability": "nonpayable",
      "type": "function"
    },
    {
      "inputs": [],
      "name": "name",
      "outputs": [
        {
          "internalType": "string",
          "name": "",
          "type": "string"
        }
      ],
      "stateMutability": "view",
      "type": "function"
    },
    {
      "inputs": [],
      "name": "symbol",
      "outputs": [
        {
          "internalType": "string",
          "name": "",
          "type": "string"
        }
      ],
      "stateMutability": "view",
      "type": "function"
    },
    {
      "inputs": [],
      "name": "totalSupply",
      "outputs": [
        {
          "internalType": "uint256",
          "name": "",
          "type": "uint256"
        }
      ],
      "stateMutability": "view",
      "type": "function"
    },
    {
      "inputs": [],
      "name": "totalSupplyLimit",
      "outputs": [
        {
          "internalType": "uint256",
          "name": "",
          "type": "uint256"
        }
      ],
      "stateMutability": "view",
      "type": "function"
    },
    {
      "inputs": [
        {
          "internalType": "address",
          "name": "to",
          "type": "address"
        },
        {
          "internalType": "uint256",
          "name": "amount",
          "type": "uint256"
        }
      ],
      "name": "transfer",
      "outputs": [
        {
          "internalType": "bool",
          "name": "",
          "type": "bool"
        }
      ],
      "stateMutability": "nonpayable",
      "type": "function"
    },
    {
      "inputs": [
        {
          "internalType": "address",
          "name": "from",
          "type": "address"
        },
        {
          "internalType": "address",
          "name": "to",
          "type": "address"
        },
        {
          "internalType": "uint256",
          "name": "amount",
          "type": "uint256"
        }
      ],
      "name": "transferFrom",
      "outputs": [
        {
          "internalType": "bool",
          "name": "",
          "type": "bool"
        }
      ],
      "stateMutability": "nonpayable",
      "type": "function"
    }
  ],
  "bytecode": "0x60806040523480156200001157600080fd5b5060405162002350380380620023508339818101604052810190620000379190620004dc565b838381600390805190602001906200005192919062000254565b5080600490805190602001906200006a92919062000254565b50505033600560006101000a81548173ffffffffffffffffffffffffffffffffffffffff021916908373ffffffffffffffffffffffffffffffffffffffff16021790555080600681905550620000c73383620000d160201b60201c565b505050506200072e565b600073ffffffffffffffffffffffffffffffffffffffff168273ffffffffffffffffffffffffffffffffffffffff16141562000144576040517f08c379a00000000000000000000000000000000000000000000000000000000081526004016200013b90620005ed565b60405180910390fd5b62000158600083836200024a60201b60201c565b80600260008282546200016c91906200063e565b92505081905550806000808473ffffffffffffffffffffffffffffffffffffffff1673ffffffffffffffffffffffffffffffffffffffff1681526020019081526020016000206000828254620001c391906200063e565b925050819055508173ffffffffffffffffffffffffffffffffffffffff16600073ffffffffffffffffffffffffffffffffffffffff167fddf252ad1be2c89b69c2b068fc378daa952ba7f163c4a11628f55a4df523b3ef836040516200022a9190620006ac565b60405180910390a362000246600083836200024f60201b60201c565b5050565b505050565b505050565b8280546200026290620006f8565b90600052602060002090601f016020900481019282620002865760008555620002d2565b82601f10620002a157805160ff1916838001178555620002d2565b82800160010185558215620002d2579182015b82811115620002d1578251825591602001919060010190620002b4565b5b509050620002e19190620002e5565b5090565b5b8082111562000300576000816000905550600101620002e6565b5090565b6000604051905090565b600080fd5b600080fd5b600080fd5b600080fd5b6000601f19601f8301169050919050565b7f4e487b7100000000000000000000000000000000000000000000000000000000600052604160045260246000fd5b6200036d8262000322565b810181811067ffffffffffffffff821117156200038f576200038e62000333565b5b80604052505050565b6000620003a462000304565b9050620003b2828262000362565b919050565b600067ffffffffffffffff821115620003d557620003d462000333565b5b620003e08262000322565b9050602081019050919050565b60005b838110156200040d578082015181840152602081019050620003f0565b838111156200041d576000848401525b50505050565b60006200043a6200043484620003b7565b62000398565b9050828152602081018484840111156200045957620004586200031d565b5b62000466848285620003ed565b509392505050565b600082601f83011262000486576200048562000318565b5b81516200049884826020860162000423565b91505092915050565b6000819050919050565b620004b681620004a1565b8114620004c257600080fd5b50565b600081519050620004d681620004ab565b92915050565b60008060008060808587031215620004f957620004f86200030e565b5b600085015167ffffffffffffffff8111156200051a576200051962000313565b5b62000528878288016200046e565b945050602085015167ffffffffffffffff8111156200054c576200054b62000313565b5b6200055a878288016200046e565b93505060406200056d87828801620004c5565b92505060606200058087828801620004c5565b91505092959194509250565b600082825260208201905092915050565b7f45524332303a206d696e7420746f20746865207a65726f206164647265737300600082015250565b6000620005d5601f836200058c565b9150620005e2826200059d565b602082019050919050565b600060208201905081810360008301526200060881620005c6565b9050919050565b7f4e487b7100000000000000000000000000000000000000000000000000000000600052601160045260246000fd5b60006200064b82620004a1565b91506200065883620004a1565b9250827fffffffffffffffffffffffffffffffffffffffffffffffffffffffffffffffff0382111562000690576200068f6200060f565b5b828201905092915050565b620006a681620004a1565b82525050565b6000602082019050620006c360008301846200069b565b92915050565b7f4e487b7100000000000000000000000000000000000000000000000000000000600052602260045260246000fd5b600060028204905060018216806200071157607f821691505b60208210811415620007285762000727620006c9565b5b50919050565b611c12806200073e6000396000f3fe608060405234801561001057600080fd5b506004361061010b5760003560e01c806370a08231116100a2578063a457c2d711610071578063a457c2d7146102b8578063a9059cbb146102e8578063bac21a2214610318578063dd62ed3e14610336578063f851a440146103665761010b565b806370a082311461023257806379cc6790146102625780638f2839701461027e57806395d89b411461029a5761010b565b8063313ce567116100de578063313ce567146101ac57806339509351146101ca57806340c10f19146101fa57806342966c68146102165761010b565b806306fdde0314610110578063095ea7b31461012e57806318160ddd1461015e57806323b872dd1461017c575b600080fd5b610118610384565b60405161012591906111b3565b60405180910390f35b6101486004803603810190610143919061126e565b610416565b60405161015591906112c9565b60405180910390f35b610166610439565b60405161017391906112f3565b60405180910390f35b6101966004803603810190610191919061130e565b610443565b6040516101a391906112c9565b60405180910390f35b6101b4610472565b6040516101c1919061137d565b60405180910390f35b6101e460048036038101906101df919061126e565b61047b565b6040516101f191906112c9565b60405180910390f35b610214600480360381019061020f919061126e565b6104b2565b005b610230600480360381019061022b9190611398565b6105b4565b005b61024c600480360381019061024791906113c5565b6105c8565b60405161025991906112f3565b60405180910390f35b61027c6004803603810190610277919061126e565b610610565b005b610298600480360381019061029391906113c5565b610630565b005b6102a2610704565b6040516102af91906111b3565b60405180910390f35b6102d260048036038101906102cd919061126e565b610796565b6040516102df91906112c9565b60405180910390f35b61030260048036038101906102fd919061126e565b61080d565b60405161030f91906112c9565b60405180910390f35b610320610830565b60405161032d91906112f3565b60405180910390f35b610350600480360381019061034b91906113f2565b610836565b60405161035d91906112f3565b60405180910390f35b61036e6108bd565b60405161037b9190611441565b60405180910390f35b6060600380546103939061148b565b80601f01602080910402602001604051908101604052809291908181526020018280546103bf9061148b565b801561040c5780601f106103e15761010080835404028352916020019161040c565b820191906000526020600020905b8154815290600101906020018083116103ef57829003601f168201915b5050505050905090565b6000806104216108e3565b905061042e8185856108eb565b600191505092915050565b6000600254905090565b60008061044e6108e3565b905061045b858285610ab6565b610466858585610b42565b60019150509392505050565b60006012905090565b6000806104866108e3565b90506104a78185856104988589610836565b6104a291906114ec565b6108eb565b600191505092915050565b600560009054906101000a900473ffffffffffffffffffffffffffffffffffffffff1673ffffffffffffffffffffffffffffffffffffffff163373ffffffffffffffffffffffffffffffffffffffff1614610542576040517f08c379a00000000000000000000000000000000000000000000000000000000081526004016105399061158e565b60405180910390fd5b600061054c610439565b90506006546105648383610dc390919063ffffffff16565b11156105a5576040517f08c379a000000000000000000000000000000000000000000000000000000000815260040161059c90611620565b60405180910390fd5b6105af8383610dd9565b505050565b6105c56105bf6108e3565b82610f39565b50565b60008060008373ffffffffffffffffffffffffffffffffffffffff1673ffffffffffffffffffffffffffffffffffffffff168152602001908152602001600020549050919050565b6106228261061c6108e3565b83610ab6565b61062c8282610f39565b5050565b600560009054906101000a900473ffffffffffffffffffffffffffffffffffffffff1673ffffffffffffffffffffffffffffffffffffffff163373ffffffffffffffffffffffffffffffffffffffff16146106c0576040517f08c379a00000000000000000000000000000000000000000000000000000000081526004016106b79061158e565b60405180910390fd5b80600560006101000a81548173ffffffffffffffffffffffffffffffffffffffff021916908373ffffffffffffffffffffffffffffffffffffffff16021790555050565b6060600480546107139061148b565b80601f016020809104026020016040519081016040528092919081815260200182805461073f9061148b565b801561078c5780601f106107615761010080835404028352916020019161078c565b820191906000526020600020905b81548152906001019060200180831161076f57829003601f168201915b5050505050905090565b6000806107a16108e3565b905060006107af8286610836565b9050838110156107f4576040517f08c379a00000000000000000000000000000000000000000000000000000000081526004016107eb906116b2565b60405180910390fd5b61080182868684036108eb565b60019250505092915050565b6000806108186108e3565b9050610825818585610b42565b600191505092915050565b60065481565b6000600160008473ffffffffffffffffffffffffffffffffffffffff1673ffffffffffffffffffffffffffffffffffffffff16815260200190815260200160002060008373ffffffffffffffffffffffffffffffffffffffff1673ffffffffffffffffffffffffffffffffffffffff16815260200190815260200160002054905092915050565b600560009054906101000a900473ffffffffffffffffffffffffffffffffffffffff1681565b600033905090565b600073ffffffffffffffffffffffffffffffffffffffff168373ffffffffffffffffffffffffffffffffffffffff16141561095b576040517f08c379a000000000000000000000000000000000000000000000000000000000815260040161095290611744565b60405180910390fd5b600073ffffffffffffffffffffffffffffffffffffffff168273ffffffffffffffffffffffffffffffffffffffff1614156109cb576040517f08c379a00000000000000000000000000000000000000000000000000000000081526004016109c2906117d6565b60405180910390fd5b80600160008573ffffffffffffffffffffffffffffffffffffffff1673ffffffffffffffffffffffffffffffffffffffff16815260200190815260200160002060008473ffffffffffffffffffffffffffffffffffffffff1673ffffffffffffffffffffffffffffffffffffffff168152602001908152602001600020819055508173ffffffffffffffffffffffffffffffffffffffff168373ffffffffffffffffffffffffffffffffffffffff167f8c5be1e5ebec7d5bd14f71427d1e84f3dd0314c0f7b2291e5b200ac8c7c3b92583604051610aa991906112f3565b60405180910390a3505050565b6000610ac28484610836565b90507fffffffffffffffffffffffffffffffffffffffffffffffffffffffffffffffff8114610b3c5781811015610b2e576040517f08c379a0000000000000000000000000000000000000000000000000000000008152600401610b2590611842565b60405180910390fd5b610b3b84848484036108eb565b5b50505050565b600073ffffffffffffffffffffffffffffffffffffffff168373ffffffffffffffffffffffffffffffffffffffff161415610bb2576040517f08c379a0000000000000000000000000000000000000000000000000000000008152600401610ba9906118d4565b60405180910390fd5b600073ffffffffffffffffffffffffffffffffffffffff168273ffffffffffffffffffffffffffffffffffffffff161415610c22576040517f08c379a0000000000000000000000000000000000000000000000000000000008152600401610c1990611966565b60405180910390fd5b610c2d838383611110565b60008060008573ffffffffffffffffffffffffffffffffffffffff1673ffffffffffffffffffffffffffffffffffffffff16815260200190815260200160002054905081811015610cb3576040517f08c379a0000000000000000000000000000000000000000000000000000000008152600401610caa906119f8565b60405180910390fd5b8181036000808673ffffffffffffffffffffffffffffffffffffffff1673ffffffffffffffffffffffffffffffffffffffff16815260200190815260200160002081905550816000808573ffffffffffffffffffffffffffffffffffffffff1673ffffffffffffffffffffffffffffffffffffffff1681526020019081526020016000206000828254610d4691906114ec565b925050819055508273ffffffffffffffffffffffffffffffffffffffff168473ffffffffffffffffffffffffffffffffffffffff167fddf252ad1be2c89b69c2b068fc378daa952ba7f163c4a11628f55a4df523b3ef84604051610daa91906112f3565b60405180910390a3610dbd848484611115565b50505050565b60008183610dd191906114ec565b905092915050565b600073ffffffffffffffffffffffffffffffffffffffff168273ffffffffffffffffffffffffffffffffffffffff161415610e49576040517f08c379a0000000000000000000000000000000000000000000000000000000008152600401610e4090611a64565b60405180910390fd5b610e5560008383611110565b8060026000828254610e6791906114ec565b92505081905550806000808473ffffffffffffffffffffffffffffffffffffffff1673ffffffffffffffffffffffffffffffffffffffff1681526020019081526020016000206000828254610ebc91906114ec565b925050819055508173ffffffffffffffffffffffffffffffffffffffff16600073ffffffffffffffffffffffffffffffffffffffff167fddf252ad1be2c89b69c2b068fc378daa952ba7f163c4a11628f55a4df523b3ef83604051610f2191906112f3565b60405180910390a3610f3560008383611115565b5050565b600073ffffffffffffffffffffffffffffffffffffffff168273ffffffffffffffffffffffffffffffffffffffff161415610fa9576040517f08c379a0000000000000000000000000000000000000000000000000000000008152600401610fa090611af6565b60405180910390fd5b610fb582600083611110565b60008060008473ffffffffffffffffffffffffffffffffffffffff1673ffffffffffffffffffffffffffffffffffffffff1681526020019081526020016000205490508181101561103b576040517f08c379a000000000000000000000000000000000000000000000000000000000815260040161103290611b88565b60405180910390fd5b8181036000808573ffffffffffffffffffffffffffffffffffffffff1673ffffffffffffffffffffffffffffffffffffffff1681526020019081526020016000208190555081600260008282546110929190611ba8565b92505081905550600073ffffffffffffffffffffffffffffffffffffffff168373ffffffffffffffffffffffffffffffffffffffff167fddf252ad1be2c89b69c2b068fc378daa952ba7f163c4a11628f55a4df523b3ef846040516110f791906112f3565b60405180910390a361110b83600084611115565b505050565b505050565b505050565b600081519050919050565b600082825260208201905092915050565b60005b83811015611154578082015181840152602081019050611139565b83811115611163576000848401525b50505050565b6000601f19601f8301169050919050565b60006111858261111a565b61118f8185611125565b935061119f818560208601611136565b6111a881611169565b840191505092915050565b600060208201905081810360008301526111cd818461117a565b905092915050565b600080fd5b600073ffffffffffffffffffffffffffffffffffffffff82169050919050565b6000611205826111da565b9050919050565b611215816111fa565b811461122057600080fd5b50565b6000813590506112328161120c565b92915050565b6000819050919050565b61124b81611238565b811461125657600080fd5b50565b60008135905061126881611242565b92915050565b60008060408385031215611285576112846111d5565b5b600061129385828601611223565b92505060206112a485828601611259565b9150509250929050565b60008115159050919050565b6112c3816112ae565b82525050565b60006020820190506112de60008301846112ba565b92915050565b6112ed81611238565b82525050565b600060208201905061130860008301846112e4565b92915050565b600080600060608486031215611327576113266111d5565b5b600061133586828701611223565b935050602061134686828701611223565b925050604061135786828701611259565b9150509250925092565b600060ff82169050919050565b61137781611361565b82525050565b6000602082019050611392600083018461136e565b92915050565b6000602082840312156113ae576113ad6111d5565b5b60006113bc84828501611259565b91505092915050565b6000602082840312156113db576113da6111d5565b5b60006113e984828501611223565b91505092915050565b60008060408385031215611409576114086111d5565b5b600061141785828601611223565b925050602061142885828601611223565b9150509250929050565b61143b816111fa565b82525050565b60006020820190506114566000830184611432565b92915050565b7f4e487b7100000000000000000000000000000000000000000000000000000000600052602260045260246000fd5b600060028204905060018216806114a357607f821691505b602082108114156114b7576114b661145c565b5b50919050565b7f4e487b7100000000000000000000000000000000000000000000000000000000600052601160045260246000fd5b60006114f782611238565b915061150283611238565b9250827fffffffffffffffffffffffffffffffffffffffffffffffffffffffffffffffff03821115611537576115366114bd565b5b828201905092915050565b7f6f6e6c792061646d696e00000000000000000000000000000000000000000000600082015250565b6000611578600a83611125565b915061158382611542565b602082019050919050565b600060208201905081810360008301526115a78161156b565b9050919050565b7f576520617265207265616368656420746865206c696d697420696e207468652060008201527f746f74616c20737570706c790000000000000000000000000000000000000000602082015250565b600061160a602c83611125565b9150611615826115ae565b604082019050919050565b60006020820190508181036000830152611639816115fd565b9050919050565b7f45524332303a2064656372656173656420616c6c6f77616e63652062656c6f7760008201527f207a65726f000000000000000000000000000000000000000000000000000000602082015250565b600061169c602583611125565b91506116a782611640565b604082019050919050565b600060208201905081810360008301526116cb8161168f565b9050919050565b7f45524332303a20617070726f76652066726f6d20746865207a65726f2061646460008201527f7265737300000000000000000000000000000000000000000000000000000000602082015250565b600061172e602483611125565b9150611739826116d2565b604082019050919050565b6000602082019050818103600083015261175d81611721565b9050919050565b7f45524332303a20617070726f766520746f20746865207a65726f20616464726560008201527f7373000000000000000000000000000000000000000000000000000000000000602082015250565b60006117c0602283611125565b91506117cb82611764565b604082019050919050565b600060208201905081810360008301526117ef816117b3565b9050919050565b7f45524332303a20696e73756666696369656e7420616c6c6f77616e6365000000600082015250565b600061182c601d83611125565b9150611837826117f6565b602082019050919050565b6000602082019050818103600083015261185b8161181f565b9050919050565b7f45524332303a207472616e736665722066726f6d20746865207a65726f20616460008201527f6472657373000000000000000000000000000000000000000000000000000000602082015250565b60006118be602583611125565b91506118c982611862565b604082019050919050565b600060208201905081810360008301526118ed816118b1565b9050919050565b7f45524332303a207472616e7366657220746f20746865207a65726f206164647260008201527f6573730000000000000000000000000000000000000000000000000000000000602082015250565b6000611950602383611125565b915061195b826118f4565b604082019050919050565b6000602082019050818103600083015261197f81611943565b9050919050565b7f45524332303a207472616e7366657220616d6f756e742065786365656473206260008201527f616c616e63650000000000000000000000000000000000000000000000000000602082015250565b60006119e2602683611125565b91506119ed82611986565b604082019050919050565b60006020820190508181036000830152611a11816119d5565b9050919050565b7f45524332303a206d696e7420746f20746865207a65726f206164647265737300600082015250565b6000611a4e601f83611125565b9150611a5982611a18565b602082019050919050565b60006020820190508181036000830152611a7d81611a41565b9050919050565b7f45524332303a206275726e2066726f6d20746865207a65726f2061646472657360008201527f7300000000000000000000000000000000000000000000000000000000000000602082015250565b6000611ae0602183611125565b9150611aeb82611a84565b604082019050919050565b60006020820190508181036000830152611b0f81611ad3565b9050919050565b7f45524332303a206275726e20616d6f756e7420657863656564732062616c616e60008201527f6365000000000000000000000000000000000000000000000000000000000000602082015250565b6000611b72602283611125565b9150611b7d82611b16565b604082019050919050565b60006020820190508181036000830152611ba181611b65565b9050919050565b6000611bb382611238565b9150611bbe83611238565b925082821015611bd157611bd06114bd565b5b82820390509291505056fea2646970667358221220a3820d98875a2bc9cbb7ea76b81e6ccaa67d91b9bc4897a1699292c18ddf087264736f6c63430008090033",
  "linkReferences": {},
  "deployedLinkReferences": {}
}