{
  "_format": "hh-sol-artifact-1",
  "contractName": "MoonappToken",
  "sourceName": "contracts/MoonappToken.sol",
  "abi": [
    {
      "inputs": [
        {
          "internalType": "string",
          "name": "_name",
          "type": "string"
        },
        {
          "internalType": "string",
          "name": "_symbol",
          "type": "string"
        },
        {
          "internalType": "uint256",
          "name": "_initialSupply",
          "type": "uint256"
        },
        {
          "internalType": "uint256",
          "name": "_totalSupplyLimit",
          "type": "uint256"
        }
      ],
      "stateMutability": "nonpayable",
      "type": "constructor"
    },
    {
      "anonymous": false,
      "inputs": [
        {
          "indexed": true,
          "internalType": "address",
          "name": "owner",
          "type": "address"
        },
        {
          "indexed": true,
          "internalType": "address",
          "name": "spender",
          "type": "address"
        },
        {
          "indexed": false,
          "internalType": "uint256",
          "name": "value",
          "type": "uint256"
        }
      ],
      "name": "Approval",
      "type": "event"
    },
    {
      "anonymous": false,
      "inputs": [
        {
          "indexed": true,
          "internalType": "address",
          "name": "from",
          "type": "address"
        },
        {
          "indexed": true,
          "internalType": "address",
          "name": "to",
          "type": "address"
        },
        {
          "indexed": false,
          "internalType": "uint256",
          "name": "value",
          "type": "uint256"
        }
      ],
      "name": "Transfer",
      "type": "event"
    },
    {
      "inputs": [],
      "name": "admin",
      "outputs": [
        {
          "internalType": "address",
          "name": "",
          "type": "address"
        }
      ],
      "stateMutability": "view",
      "type": "function"
    },
    {
      "inputs": [
        {
          "internalType": "address",
          "name": "owner",
          "type": "address"
        },
        {
          "internalType": "address",
          "name": "spender",
          "type": "address"
        }
      ],
      "name": "allowance",
      "outputs": [
        {
          "internalType": "uint256",
          "name": "",
          "type": "uint256"
        }
      ],
      "stateMutability": "view",
      "type": "function"
    },
    {
      "inputs": [
        {
          "internalType": "address",
          "name": "spender",
          "type": "address"
        },
        {
          "internalType": "uint256",
          "name": "amount",
          "type": "uint256"
        }
      ],
      "name": "approve",
      "outputs": [
        {
          "internalType": "bool",
          "name": "",
          "type": "bool"
        }
      ],
      "stateMutability": "nonpayable",
      "type": "function"
    },
    {
      "inputs": [
        {
          "internalType": "address",
          "name": "account",
          "type": "address"
        }
      ],
      "name": "balanceOf",
      "outputs": [
        {
          "internalType": "uint256",
          "name": "",
          "type": "uint256"
        }
      ],
      "stateMutability": "view",
      "type": "function"
    },
    {
      "inputs": [
        {
          "internalType": "uint256",
          "name": "amount",
          "type": "uint256"
        }
      ],
      "name": "burn",
      "outputs": [],
      "stateMutability": "nonpayable",
      "type": "function"
    },
    {
      "inputs": [
        {
          "internalType": "address",
          "name": "account",
          "type": "address"
        },
        {
          "internalType": "uint256",
          "name": "amount",
          "type": "uint256"
        }
      ],
      "name": "burnFrom",
      "outputs": [],
      "stateMutability": "nonpayable",
      "type": "function"
    },
    {
      "inputs": [
        {
          "internalType": "address",
          "name": "newAdmin",
          "type": "address"
        }
      ],
      "name": "changeAdmin",
      "outputs": [],
      "stateMutability": "nonpayable",
      "type": "function"
    },
    {
      "inputs": [],
      "name": "decimals",
      "outputs": [
        {
          "internalType": "uint8",
          "name": "",
          "type": "uint8"
        }
      ],
      "stateMutability": "view",
      "type": "function"
    },
    {
      "inputs": [
        {
          "internalType": "address",
          "name": "spender",
          "type": "address"
        },
        {
          "internalType": "uint256",
          "name": "subtractedValue",
          "type": "uint256"
        }
      ],
      "name": "decreaseAllowance",
      "outputs": [
        {
          "internalType": "bool",
          "name": "",
          "type": "bool"
        }
      ],
      "stateMutability": "nonpayable",
      "type": "function"
    },
    {
      "inputs": [
        {
          "internalType": "address",
          "name": "spender",
          "type": "address"
        },
        {
          "internalType": "uint256",
          "name": "addedValue",
          "type": "uint256"
        }
      ],
      "name": "increaseAllowance",
      "outputs": [
        {
          "internalType": "bool",
          "name": "",
          "type": "bool"
        }
      ],
      "stateMutability": "nonpayable",
      "type": "function"
    },
    {
      "inputs": [
        {
          "internalType": "address",
          "name": "account",
          "type": "address"
        },
        {
          "internalType": "uint256",
          "name": "amount",
          "type": "uint256"
        }
      ],
      "name": "mint",
      "outputs": [],
      "stateMutability": "nonpayable",
      "type": "function"
    },
    {
      "inputs": [],
      "name": "name",
      "outputs": [
        {
          "internalType": "string",
          "name": "",
          "type": "string"
        }
      ],
      "stateMutability": "view",
      "type": "function"
    },
    {
      "inputs": [],
      "name": "symbol",
      "outputs": [
        {
          "internalType": "string",
          "name": "",
          "type": "string"
        }
      ],
      "stateMutability": "view",
      "type": "function"
    },
    {
      "inputs": [],
      "name": "totalSupply",
      "outputs": [
        {
          "internalType": "uint256",
          "name": "",
          "type": "uint256"
        }
      ],
      "stateMutability": "view",
      "type": "function"
    },
    {
      "inputs": [],
      "name": "totalSupplyLimit",
      "outputs": [
        {
          "internalType": "uint256",
          "name": "",
          "type": "uint256"
        }
      ],
      "stateMutability": "view",
      "type": "function"
    },
    {
      "inputs": [
        {
          "internalType": "address",
          "name": "to",
          "type": "address"
        },
        {
          "internalType": "uint256",
          "name": "amount",
          "type": "uint256"
        }
      ],
      "name": "transfer",
      "outputs": [
        {
          "internalType": "bool",
          "name": "",
          "type": "bool"
        }
      ],
      "stateMutability": "nonpayable",
      "type": "function"
    },
    {
      "inputs": [
        {
          "internalType": "address",
          "name": "from",
          "type": "address"
        },
        {
          "internalType": "address",
          "name": "to",
          "type": "address"
        },
        {
          "internalType": "uint256",
          "name": "amount",
          "type": "uint256"
        }
      ],
      "name": "transferFrom",
      "outputs": [
        {
          "internalType": "bool",
          "name": "",
          "type": "bool"
        }
      ],
      "stateMutability": "nonpayable",
      "type": "function"
    }
  ],
  "bytecode": "0x60806040523480156200001157600080fd5b506040516200245938038062002459833981810160405281019062000037919062000506565b83838160039080519060200190620000519291906200027e565b5080600490805190602001906200006a9291906200027e565b50505033600560006101000a81548173ffffffffffffffffffffffffffffffffffffffff021916908373ffffffffffffffffffffffffffffffffffffffff160217905550670de0b6b3a764000081620000c49190620005e5565b600681905550620000f133670de0b6b3a764000084620000e59190620005e5565b620000fb60201b60201c565b50505050620007b9565b600073ffffffffffffffffffffffffffffffffffffffff168273ffffffffffffffffffffffffffffffffffffffff1614156200016e576040517f08c379a00000000000000000000000000000000000000000000000000000000081526004016200016590620006a7565b60405180910390fd5b62000182600083836200027460201b60201c565b8060026000828254620001969190620006c9565b92505081905550806000808473ffffffffffffffffffffffffffffffffffffffff1673ffffffffffffffffffffffffffffffffffffffff1681526020019081526020016000206000828254620001ed9190620006c9565b925050819055508173ffffffffffffffffffffffffffffffffffffffff16600073ffffffffffffffffffffffffffffffffffffffff167fddf252ad1be2c89b69c2b068fc378daa952ba7f163c4a11628f55a4df523b3ef8360405162000254919062000737565b60405180910390a362000270600083836200027960201b60201c565b5050565b505050565b505050565b8280546200028c9062000783565b90600052602060002090601f016020900481019282620002b05760008555620002fc565b82601f10620002cb57805160ff1916838001178555620002fc565b82800160010185558215620002fc579182015b82811115620002fb578251825591602001919060010190620002de565b5b5090506200030b91906200030f565b5090565b5b808211156200032a57600081600090555060010162000310565b5090565b6000604051905090565b600080fd5b600080fd5b600080fd5b600080fd5b6000601f19601f8301169050919050565b7f4e487b7100000000000000000000000000000000000000000000000000000000600052604160045260246000fd5b62000397826200034c565b810181811067ffffffffffffffff82111715620003b957620003b86200035d565b5b80604052505050565b6000620003ce6200032e565b9050620003dc82826200038c565b919050565b600067ffffffffffffffff821115620003ff57620003fe6200035d565b5b6200040a826200034c565b9050602081019050919050565b60005b83811015620004375780820151818401526020810190506200041a565b8381111562000447576000848401525b50505050565b6000620004646200045e84620003e1565b620003c2565b90508281526020810184848401111562000483576200048262000347565b5b6200049084828562000417565b509392505050565b600082601f830112620004b057620004af62000342565b5b8151620004c28482602086016200044d565b91505092915050565b6000819050919050565b620004e081620004cb565b8114620004ec57600080fd5b50565b6000815190506200050081620004d5565b92915050565b6000806000806080858703121562000523576200052262000338565b5b600085015167ffffffffffffffff8111156200054457620005436200033d565b5b620005528782880162000498565b945050602085015167ffffffffffffffff8111156200057657620005756200033d565b5b620005848782880162000498565b93505060406200059787828801620004ef565b9250506060620005aa87828801620004ef565b91505092959194509250565b7f4e487b7100000000000000000000000000000000000000000000000000000000600052601160045260246000fd5b6000620005f282620004cb565b9150620005ff83620004cb565b9250817fffffffffffffffffffffffffffffffffffffffffffffffffffffffffffffffff04831182151516156200063b576200063a620005b6565b5b828202905092915050565b600082825260208201905092915050565b7f45524332303a206d696e7420746f20746865207a65726f206164647265737300600082015250565b60006200068f601f8362000646565b91506200069c8262000657565b602082019050919050565b60006020820190508181036000830152620006c28162000680565b9050919050565b6000620006d682620004cb565b9150620006e383620004cb565b9250827fffffffffffffffffffffffffffffffffffffffffffffffffffffffffffffffff038211156200071b576200071a620005b6565b5b828201905092915050565b6200073181620004cb565b82525050565b60006020820190506200074e600083018462000726565b92915050565b7f4e487b7100000000000000000000000000000000000000000000000000000000600052602260045260246000fd5b600060028204905060018216806200079c57607f821691505b60208210811415620007b357620007b262000754565b5b50919050565b611c9080620007c96000396000f3fe608060405234801561001057600080fd5b506004361061010b5760003560e01c806370a08231116100a2578063a457c2d711610071578063a457c2d7146102b8578063a9059cbb146102e8578063bac21a2214610318578063dd62ed3e14610336578063f851a440146103665761010b565b806370a082311461023257806379cc6790146102625780638f2839701461027e57806395d89b411461029a5761010b565b8063313ce567116100de578063313ce567146101ac57806339509351146101ca57806340c10f19146101fa57806342966c68146102165761010b565b806306fdde0314610110578063095ea7b31461012e57806318160ddd1461015e57806323b872dd1461017c575b600080fd5b610118610384565b6040516101259190611231565b60405180910390f35b610148600480360381019061014391906112ec565b610416565b6040516101559190611347565b60405180910390f35b610166610439565b6040516101739190611371565b60405180910390f35b6101966004803603810190610191919061138c565b610443565b6040516101a39190611347565b60405180910390f35b6101b4610472565b6040516101c191906113fb565b60405180910390f35b6101e460048036038101906101df91906112ec565b61047b565b6040516101f19190611347565b60405180910390f35b610214600480360381019061020f91906112ec565b6104b2565b005b610230600480360381019061022b9190611416565b6105b4565b005b61024c60048036038101906102479190611443565b6105c8565b6040516102599190611371565b60405180910390f35b61027c600480360381019061027791906112ec565b610610565b005b61029860048036038101906102939190611443565b6106ae565b005b6102a2610782565b6040516102af9190611231565b60405180910390f35b6102d260048036038101906102cd91906112ec565b610814565b6040516102df9190611347565b60405180910390f35b61030260048036038101906102fd91906112ec565b61088b565b60405161030f9190611347565b60405180910390f35b6103206108ae565b60405161032d9190611371565b60405180910390f35b610350600480360381019061034b9190611470565b6108b4565b60405161035d9190611371565b60405180910390f35b61036e61093b565b60405161037b91906114bf565b60405180910390f35b60606003805461039390611509565b80601f01602080910402602001604051908101604052809291908181526020018280546103bf90611509565b801561040c5780601f106103e15761010080835404028352916020019161040c565b820191906000526020600020905b8154815290600101906020018083116103ef57829003601f168201915b5050505050905090565b600080610421610961565b905061042e818585610969565b600191505092915050565b6000600254905090565b60008061044e610961565b905061045b858285610b34565b610466858585610bc0565b60019150509392505050565b60006012905090565b600080610486610961565b90506104a781858561049885896108b4565b6104a2919061156a565b610969565b600191505092915050565b600560009054906101000a900473ffffffffffffffffffffffffffffffffffffffff1673ffffffffffffffffffffffffffffffffffffffff163373ffffffffffffffffffffffffffffffffffffffff1614610542576040517f08c379a00000000000000000000000000000000000000000000000000000000081526004016105399061160c565b60405180910390fd5b600061054c610439565b90506006546105648383610e4190919063ffffffff16565b11156105a5576040517f08c379a000000000000000000000000000000000000000000000000000000000815260040161059c9061169e565b60405180910390fd5b6105af8383610e57565b505050565b6105c56105bf610961565b82610fb7565b50565b60008060008373ffffffffffffffffffffffffffffffffffffffff1673ffffffffffffffffffffffffffffffffffffffff168152602001908152602001600020549050919050565b600560009054906101000a900473ffffffffffffffffffffffffffffffffffffffff1673ffffffffffffffffffffffffffffffffffffffff163373ffffffffffffffffffffffffffffffffffffffff16146106a0576040517f08c379a00000000000000000000000000000000000000000000000000000000081526004016106979061160c565b60405180910390fd5b6106aa8282610fb7565b5050565b600560009054906101000a900473ffffffffffffffffffffffffffffffffffffffff1673ffffffffffffffffffffffffffffffffffffffff163373ffffffffffffffffffffffffffffffffffffffff161461073e576040517f08c379a00000000000000000000000000000000000000000000000000000000081526004016107359061160c565b60405180910390fd5b80600560006101000a81548173ffffffffffffffffffffffffffffffffffffffff021916908373ffffffffffffffffffffffffffffffffffffffff16021790555050565b60606004805461079190611509565b80601f01602080910402602001604051908101604052809291908181526020018280546107bd90611509565b801561080a5780601f106107df5761010080835404028352916020019161080a565b820191906000526020600020905b8154815290600101906020018083116107ed57829003601f168201915b5050505050905090565b60008061081f610961565b9050600061082d82866108b4565b905083811015610872576040517f08c379a000000000000000000000000000000000000000000000000000000000815260040161086990611730565b60405180910390fd5b61087f8286868403610969565b60019250505092915050565b600080610896610961565b90506108a3818585610bc0565b600191505092915050565b60065481565b6000600160008473ffffffffffffffffffffffffffffffffffffffff1673ffffffffffffffffffffffffffffffffffffffff16815260200190815260200160002060008373ffffffffffffffffffffffffffffffffffffffff1673ffffffffffffffffffffffffffffffffffffffff16815260200190815260200160002054905092915050565b600560009054906101000a900473ffffffffffffffffffffffffffffffffffffffff1681565b600033905090565b600073ffffffffffffffffffffffffffffffffffffffff168373ffffffffffffffffffffffffffffffffffffffff1614156109d9576040517f08c379a00000000000000000000000000000000000000000000000000000000081526004016109d0906117c2565b60405180910390fd5b600073ffffffffffffffffffffffffffffffffffffffff168273ffffffffffffffffffffffffffffffffffffffff161415610a49576040517f08c379a0000000000000000000000000000000000000000000000000000000008152600401610a4090611854565b60405180910390fd5b80600160008573ffffffffffffffffffffffffffffffffffffffff1673ffffffffffffffffffffffffffffffffffffffff16815260200190815260200160002060008473ffffffffffffffffffffffffffffffffffffffff1673ffffffffffffffffffffffffffffffffffffffff168152602001908152602001600020819055508173ffffffffffffffffffffffffffffffffffffffff168373ffffffffffffffffffffffffffffffffffffffff167f8c5be1e5ebec7d5bd14f71427d1e84f3dd0314c0f7b2291e5b200ac8c7c3b92583604051610b279190611371565b60405180910390a3505050565b6000610b4084846108b4565b90507fffffffffffffffffffffffffffffffffffffffffffffffffffffffffffffffff8114610bba5781811015610bac576040517f08c379a0000000000000000000000000000000000000000000000000000000008152600401610ba3906118c0565b60405180910390fd5b610bb98484848403610969565b5b50505050565b600073ffffffffffffffffffffffffffffffffffffffff168373ffffffffffffffffffffffffffffffffffffffff161415610c30576040517f08c379a0000000000000000000000000000000000000000000000000000000008152600401610c2790611952565b60405180910390fd5b600073ffffffffffffffffffffffffffffffffffffffff168273ffffffffffffffffffffffffffffffffffffffff161415610ca0576040517f08c379a0000000000000000000000000000000000000000000000000000000008152600401610c97906119e4565b60405180910390fd5b610cab83838361118e565b60008060008573ffffffffffffffffffffffffffffffffffffffff1673ffffffffffffffffffffffffffffffffffffffff16815260200190815260200160002054905081811015610d31576040517f08c379a0000000000000000000000000000000000000000000000000000000008152600401610d2890611a76565b60405180910390fd5b8181036000808673ffffffffffffffffffffffffffffffffffffffff1673ffffffffffffffffffffffffffffffffffffffff16815260200190815260200160002081905550816000808573ffffffffffffffffffffffffffffffffffffffff1673ffffffffffffffffffffffffffffffffffffffff1681526020019081526020016000206000828254610dc4919061156a565b925050819055508273ffffffffffffffffffffffffffffffffffffffff168473ffffffffffffffffffffffffffffffffffffffff167fddf252ad1be2c89b69c2b068fc378daa952ba7f163c4a11628f55a4df523b3ef84604051610e289190611371565b60405180910390a3610e3b848484611193565b50505050565b60008183610e4f919061156a565b905092915050565b600073ffffffffffffffffffffffffffffffffffffffff168273ffffffffffffffffffffffffffffffffffffffff161415610ec7576040517f08c379a0000000000000000000000000000000000000000000000000000000008152600401610ebe90611ae2565b60405180910390fd5b610ed36000838361118e565b8060026000828254610ee5919061156a565b92505081905550806000808473ffffffffffffffffffffffffffffffffffffffff1673ffffffffffffffffffffffffffffffffffffffff1681526020019081526020016000206000828254610f3a919061156a565b925050819055508173ffffffffffffffffffffffffffffffffffffffff16600073ffffffffffffffffffffffffffffffffffffffff167fddf252ad1be2c89b69c2b068fc378daa952ba7f163c4a11628f55a4df523b3ef83604051610f9f9190611371565b60405180910390a3610fb360008383611193565b5050565b600073ffffffffffffffffffffffffffffffffffffffff168273ffffffffffffffffffffffffffffffffffffffff161415611027576040517f08c379a000000000000000000000000000000000000000000000000000000000815260040161101e90611b74565b60405180910390fd5b6110338260008361118e565b60008060008473ffffffffffffffffffffffffffffffffffffffff1673ffffffffffffffffffffffffffffffffffffffff168152602001908152602001600020549050818110156110b9576040517f08c379a00000000000000000000000000000000000000000000000000000000081526004016110b090611c06565b60405180910390fd5b8181036000808573ffffffffffffffffffffffffffffffffffffffff1673ffffffffffffffffffffffffffffffffffffffff1681526020019081526020016000208190555081600260008282546111109190611c26565b92505081905550600073ffffffffffffffffffffffffffffffffffffffff168373ffffffffffffffffffffffffffffffffffffffff167fddf252ad1be2c89b69c2b068fc378daa952ba7f163c4a11628f55a4df523b3ef846040516111759190611371565b60405180910390a361118983600084611193565b505050565b505050565b505050565b600081519050919050565b600082825260208201905092915050565b60005b838110156111d25780820151818401526020810190506111b7565b838111156111e1576000848401525b50505050565b6000601f19601f8301169050919050565b600061120382611198565b61120d81856111a3565b935061121d8185602086016111b4565b611226816111e7565b840191505092915050565b6000602082019050818103600083015261124b81846111f8565b905092915050565b600080fd5b600073ffffffffffffffffffffffffffffffffffffffff82169050919050565b600061128382611258565b9050919050565b61129381611278565b811461129e57600080fd5b50565b6000813590506112b08161128a565b92915050565b6000819050919050565b6112c9816112b6565b81146112d457600080fd5b50565b6000813590506112e6816112c0565b92915050565b6000806040838503121561130357611302611253565b5b6000611311858286016112a1565b9250506020611322858286016112d7565b9150509250929050565b60008115159050919050565b6113418161132c565b82525050565b600060208201905061135c6000830184611338565b92915050565b61136b816112b6565b82525050565b60006020820190506113866000830184611362565b92915050565b6000806000606084860312156113a5576113a4611253565b5b60006113b3868287016112a1565b93505060206113c4868287016112a1565b92505060406113d5868287016112d7565b9150509250925092565b600060ff82169050919050565b6113f5816113df565b82525050565b600060208201905061141060008301846113ec565b92915050565b60006020828403121561142c5761142b611253565b5b600061143a848285016112d7565b91505092915050565b60006020828403121561145957611458611253565b5b6000611467848285016112a1565b91505092915050565b6000806040838503121561148757611486611253565b5b6000611495858286016112a1565b92505060206114a6858286016112a1565b9150509250929050565b6114b981611278565b82525050565b60006020820190506114d460008301846114b0565b92915050565b7f4e487b7100000000000000000000000000000000000000000000000000000000600052602260045260246000fd5b6000600282049050600182168061152157607f821691505b60208210811415611535576115346114da565b5b50919050565b7f4e487b7100000000000000000000000000000000000000000000000000000000600052601160045260246000fd5b6000611575826112b6565b9150611580836112b6565b9250827fffffffffffffffffffffffffffffffffffffffffffffffffffffffffffffffff038211156115b5576115b461153b565b5b828201905092915050565b7f6f6e6c792061646d696e00000000000000000000000000000000000000000000600082015250565b60006115f6600a836111a3565b9150611601826115c0565b602082019050919050565b60006020820190508181036000830152611625816115e9565b9050919050565b7f576520617265207265616368656420746865206c696d697420696e207468652060008201527f746f74616c20737570706c790000000000000000000000000000000000000000602082015250565b6000611688602c836111a3565b91506116938261162c565b604082019050919050565b600060208201905081810360008301526116b78161167b565b9050919050565b7f45524332303a2064656372656173656420616c6c6f77616e63652062656c6f7760008201527f207a65726f000000000000000000000000000000000000000000000000000000602082015250565b600061171a6025836111a3565b9150611725826116be565b604082019050919050565b600060208201905081810360008301526117498161170d565b9050919050565b7f45524332303a20617070726f76652066726f6d20746865207a65726f2061646460008201527f7265737300000000000000000000000000000000000000000000000000000000602082015250565b60006117ac6024836111a3565b91506117b782611750565b604082019050919050565b600060208201905081810360008301526117db8161179f565b9050919050565b7f45524332303a20617070726f766520746f20746865207a65726f20616464726560008201527f7373000000000000000000000000000000000000000000000000000000000000602082015250565b600061183e6022836111a3565b9150611849826117e2565b604082019050919050565b6000602082019050818103600083015261186d81611831565b9050919050565b7f45524332303a20696e73756666696369656e7420616c6c6f77616e6365000000600082015250565b60006118aa601d836111a3565b91506118b582611874565b602082019050919050565b600060208201905081810360008301526118d98161189d565b9050919050565b7f45524332303a207472616e736665722066726f6d20746865207a65726f20616460008201527f6472657373000000000000000000000000000000000000000000000000000000602082015250565b600061193c6025836111a3565b9150611947826118e0565b604082019050919050565b6000602082019050818103600083015261196b8161192f565b9050919050565b7f45524332303a207472616e7366657220746f20746865207a65726f206164647260008201527f6573730000000000000000000000000000000000000000000000000000000000602082015250565b60006119ce6023836111a3565b91506119d982611972565b604082019050919050565b600060208201905081810360008301526119fd816119c1565b9050919050565b7f45524332303a207472616e7366657220616d6f756e742065786365656473206260008201527f616c616e63650000000000000000000000000000000000000000000000000000602082015250565b6000611a606026836111a3565b9150611a6b82611a04565b604082019050919050565b60006020820190508181036000830152611a8f81611a53565b9050919050565b7f45524332303a206d696e7420746f20746865207a65726f206164647265737300600082015250565b6000611acc601f836111a3565b9150611ad782611a96565b602082019050919050565b60006020820190508181036000830152611afb81611abf565b9050919050565b7f45524332303a206275726e2066726f6d20746865207a65726f2061646472657360008201527f7300000000000000000000000000000000000000000000000000000000000000602082015250565b6000611b5e6021836111a3565b9150611b6982611b02565b604082019050919050565b60006020820190508181036000830152611b8d81611b51565b9050919050565b7f45524332303a206275726e20616d6f756e7420657863656564732062616c616e60008201527f6365000000000000000000000000000000000000000000000000000000000000602082015250565b6000611bf06022836111a3565b9150611bfb82611b94565b604082019050919050565b60006020820190508181036000830152611c1f81611be3565b9050919050565b6000611c31826112b6565b9150611c3c836112b6565b925082821015611c4f57611c4e61153b565b5b82820390509291505056fea2646970667358221220d67d34cd588863fdf1bb976095306e41b09c1fc35db28b25f35b9095641ae5c764736f6c63430008090033",
  "linkReferences": {},
  "deployedLinkReferences": {}
}