{
  "_format": "hh-sol-artifact-1",
  "contractName": "Seed",
  "sourceName": "contracts/Seed.sol",
  "abi": [
    {
      "inputs": [
        {
          "internalType": "address",
          "name": "tokenAddress",
          "type": "address"
        },
        {
          "internalType": "uint256",
          "name": "_availableTokens",
          "type": "uint256"
        }
      ],
      "stateMutability": "nonpayable",
      "type": "constructor"
    },
    {
      "inputs": [
        {
          "internalType": "address",
          "name": "_investor",
          "type": "address"
        },
        {
          "internalType": "uint256",
          "name": "_tokensAmount",
          "type": "uint256"
        }
      ],
      "name": "addInvestor",
      "outputs": [],
      "stateMutability": "nonpayable",
      "type": "function"
    },
    {
      "inputs": [],
      "name": "admin",
      "outputs": [
        {
          "internalType": "address",
          "name": "",
          "type": "address"
        }
      ],
      "stateMutability": "view",
      "type": "function"
    },
    {
      "inputs": [],
      "name": "availableTokens",
      "outputs": [
        {
          "internalType": "uint256",
          "name": "",
          "type": "uint256"
        }
      ],
      "stateMutability": "view",
      "type": "function"
    },
    {
      "inputs": [
        {
          "internalType": "address",
          "name": "newAdmin",
          "type": "address"
        }
      ],
      "name": "changeAdmin",
      "outputs": [],
      "stateMutability": "nonpayable",
      "type": "function"
    },
    {
      "inputs": [
        {
          "internalType": "address",
          "name": "_investor",
          "type": "address"
        }
      ],
      "name": "getInvestorBalance",
      "outputs": [
        {
          "internalType": "uint256",
          "name": "",
          "type": "uint256"
        }
      ],
      "stateMutability": "view",
      "type": "function"
    },
    {
      "inputs": [
        {
          "internalType": "address",
          "name": "_investor",
          "type": "address"
        }
      ],
      "name": "getInvestorVestingAddress",
      "outputs": [
        {
          "internalType": "address",
          "name": "",
          "type": "address"
        }
      ],
      "stateMutability": "view",
      "type": "function"
    },
    {
      "inputs": [],
      "name": "getInvestors",
      "outputs": [
        {
          "internalType": "address[]",
          "name": "",
          "type": "address[]"
        }
      ],
      "stateMutability": "view",
      "type": "function"
    },
    {
      "inputs": [
        {
          "internalType": "address",
          "name": "",
          "type": "address"
        }
      ],
      "name": "investorTokens",
      "outputs": [
        {
          "internalType": "uint256",
          "name": "",
          "type": "uint256"
        }
      ],
      "stateMutability": "view",
      "type": "function"
    },
    {
      "inputs": [
        {
          "internalType": "address",
          "name": "",
          "type": "address"
        }
      ],
      "name": "investorVestings",
      "outputs": [
        {
          "internalType": "address",
          "name": "",
          "type": "address"
        }
      ],
      "stateMutability": "view",
      "type": "function"
    },
    {
      "inputs": [
        {
          "internalType": "uint256",
          "name": "",
          "type": "uint256"
        }
      ],
      "name": "investors",
      "outputs": [
        {
          "internalType": "address",
          "name": "",
          "type": "address"
        }
      ],
      "stateMutability": "view",
      "type": "function"
    },
    {
      "inputs": [
        {
          "internalType": "uint256",
          "name": "_start",
          "type": "uint256"
        },
        {
          "internalType": "uint256",
          "name": "_cliff",
          "type": "uint256"
        },
        {
          "internalType": "uint256",
          "name": "_releaseRate",
          "type": "uint256"
        },
        {
          "internalType": "uint256",
          "name": "_initialReleaseRate",
          "type": "uint256"
        }
      ],
      "name": "releaseTokens",
      "outputs": [],
      "stateMutability": "nonpayable",
      "type": "function"
    },
    {
      "inputs": [],
      "name": "startTime",
      "outputs": [
        {
          "internalType": "uint256",
          "name": "",
          "type": "uint256"
        }
      ],
      "stateMutability": "view",
      "type": "function"
    },
    {
      "inputs": [],
      "name": "token",
      "outputs": [
        {
          "internalType": "contract MoonappToken",
          "name": "",
          "type": "address"
        }
      ],
      "stateMutability": "view",
      "type": "function"
    }
  ],
  "bytecode": "0x60806040523480156200001157600080fd5b506040516200342b3803806200342b83398181016040528101906200003791906200016d565b81600660006101000a81548173ffffffffffffffffffffffffffffffffffffffff021916908373ffffffffffffffffffffffffffffffffffffffff16021790555033600360006101000a81548173ffffffffffffffffffffffffffffffffffffffff021916908373ffffffffffffffffffffffffffffffffffffffff160217905550806004819055505050620001b4565b600080fd5b600073ffffffffffffffffffffffffffffffffffffffff82169050919050565b6000620000fa82620000cd565b9050919050565b6200010c81620000ed565b81146200011857600080fd5b50565b6000815190506200012c8162000101565b92915050565b6000819050919050565b620001478162000132565b81146200015357600080fd5b50565b60008151905062000167816200013c565b92915050565b60008060408385031215620001875762000186620000c8565b5b600062000197858286016200011b565b9250506020620001aa8582860162000156565b9150509250929050565b61326780620001c46000396000f3fe60806040523480156200001157600080fd5b5060043610620000e25760003560e01c8063b2f5a54c1162000099578063ec20b457116200006f578063ec20b4571462000265578063f5a7c8231462000285578063f851a44014620002bb578063fc0c546a14620002dd57620000e2565b8063b2f5a54c14620001ed578063e10ad6bf146200020f578063e68e9950146200022f57620000e2565b80633feb5f2b14620000e75780635ea63913146200011d57806369bb4dc2146200015357806378e9792514620001755780638f2839701462000197578063a714485814620001b7575b600080fd5b620001056004803603810190620000ff9190620010e3565b620002ff565b6040516200011491906200115a565b60405180910390f35b6200013b6004803603810190620001359190620011a8565b6200033f565b6040516200014a9190620011eb565b60405180910390f35b6200015d62000388565b6040516200016c9190620011eb565b60405180910390f35b6200017f6200038e565b6040516200018e9190620011eb565b60405180910390f35b620001b56004803603810190620001af9190620011a8565b62000394565b005b620001d56004803603810190620001cf9190620011a8565b6200046b565b604051620001e491906200115a565b60405180910390f35b620001f76200049e565b604051620002069190620012d6565b60405180910390f35b6200022d6004803603810190620002279190620012fa565b6200052e565b005b6200024d6004803603810190620002479190620011a8565b62000963565b6040516200025c9190620011eb565b60405180910390f35b6200028360048036038101906200027d91906200136c565b6200097b565b005b620002a360048036038101906200029d9190620011a8565b62000c89565b604051620002b291906200115a565b60405180910390f35b620002c562000cf2565b604051620002d491906200115a565b60405180910390f35b620002e762000d18565b604051620002f691906200141e565b60405180910390f35b600081815481106200031057600080fd5b906000526020600020016000915054906101000a900473ffffffffffffffffffffffffffffffffffffffff1681565b6000600160008373ffffffffffffffffffffffffffffffffffffffff1673ffffffffffffffffffffffffffffffffffffffff168152602001908152602001600020549050919050565b60045481565b60055481565b600360009054906101000a900473ffffffffffffffffffffffffffffffffffffffff1673ffffffffffffffffffffffffffffffffffffffff163373ffffffffffffffffffffffffffffffffffffffff161462000427576040517f08c379a00000000000000000000000000000000000000000000000000000000081526004016200041e906200149c565b60405180910390fd5b80600360006101000a81548173ffffffffffffffffffffffffffffffffffffffff021916908373ffffffffffffffffffffffffffffffffffffffff16021790555050565b60026020528060005260406000206000915054906101000a900473ffffffffffffffffffffffffffffffffffffffff1681565b606060008054806020026020016040519081016040528092919081815260200182805480156200052457602002820191906000526020600020905b8160009054906101000a900473ffffffffffffffffffffffffffffffffffffffff1673ffffffffffffffffffffffffffffffffffffffff1681526020019060010190808311620004d9575b5050505050905090565b600360009054906101000a900473ffffffffffffffffffffffffffffffffffffffff1673ffffffffffffffffffffffffffffffffffffffff163373ffffffffffffffffffffffffffffffffffffffff1614620005c1576040517f08c379a0000000000000000000000000000000000000000000000000000000008152600401620005b8906200149c565b60405180910390fd5b60006005541462000609576040517f08c379a000000000000000000000000000000000000000000000000000000000815260040162000600906200150e565b60405180910390fd5b8360058190555060008080549050905060005b818110156200095b57600073ffffffffffffffffffffffffffffffffffffffff166002600080848154811062000657576200065662001530565b5b9060005260206000200160009054906101000a900473ffffffffffffffffffffffffffffffffffffffff1673ffffffffffffffffffffffffffffffffffffffff1673ffffffffffffffffffffffffffffffffffffffff16815260200190815260200160002060009054906101000a900473ffffffffffffffffffffffffffffffffffffffff1673ffffffffffffffffffffffffffffffffffffffff1614620006ff5762000945565b6000600160008084815481106200071b576200071a62001530565b5b9060005260206000200160009054906101000a900473ffffffffffffffffffffffffffffffffffffffff1673ffffffffffffffffffffffffffffffffffffffff1673ffffffffffffffffffffffffffffffffffffffff168152602001908152602001600020549050600084606483620007959190620015bd565b620007a19190620015f5565b90506000808481548110620007bb57620007ba62001530565b5b9060005260206000200160009054906101000a900473ffffffffffffffffffffffffffffffffffffffff16600554898985604051620007fa9062001095565b6200080a95949392919062001656565b604051809103906000f08015801562000827573d6000803e3d6000fd5b509050620008776000858154811062000845576200084462001530565b5b9060005260206000200160009054906101000a900473ffffffffffffffffffffffffffffffffffffffff168362000d3e565b62000883818462000d3e565b80600260008087815481106200089e576200089d62001530565b5b9060005260206000200160009054906101000a900473ffffffffffffffffffffffffffffffffffffffff1673ffffffffffffffffffffffffffffffffffffffff1673ffffffffffffffffffffffffffffffffffffffff16815260200190815260200160002060006101000a81548173ffffffffffffffffffffffffffffffffffffffff021916908373ffffffffffffffffffffffffffffffffffffffff1602179055505050505b80806200095290620016b3565b9150506200061c565b505050505050565b60016020528060005260406000206000915090505481565b600360009054906101000a900473ffffffffffffffffffffffffffffffffffffffff1673ffffffffffffffffffffffffffffffffffffffff163373ffffffffffffffffffffffffffffffffffffffff161462000a0e576040517f08c379a000000000000000000000000000000000000000000000000000000000815260040162000a05906200149c565b60405180910390fd5b600073ffffffffffffffffffffffffffffffffffffffff168273ffffffffffffffffffffffffffffffffffffffff16141562000a81576040517f08c379a000000000000000000000000000000000000000000000000000000000815260040162000a789062001777565b60405180910390fd5b6000600160008473ffffffffffffffffffffffffffffffffffffffff1673ffffffffffffffffffffffffffffffffffffffff168152602001908152602001600020541462000b06576040517f08c379a000000000000000000000000000000000000000000000000000000000815260040162000afd906200180f565b60405180910390fd5b60045481111562000b4e576040517f08c379a000000000000000000000000000000000000000000000000000000000815260040162000b4590620018a7565b60405180910390fd5b6000811162000b94576040517f08c379a000000000000000000000000000000000000000000000000000000000815260040162000b8b9062001919565b60405180910390fd5b6000600160008473ffffffffffffffffffffffffffffffffffffffff1673ffffffffffffffffffffffffffffffffffffffff16815260200190815260200160002054141562000c85576000829080600181540180825580915050600190039060005260206000200160009091909190916101000a81548173ffffffffffffffffffffffffffffffffffffffff021916908373ffffffffffffffffffffffffffffffffffffffff16021790555080600160008473ffffffffffffffffffffffffffffffffffffffff1673ffffffffffffffffffffffffffffffffffffffff168152602001908152602001600020819055505b5050565b6000600260008373ffffffffffffffffffffffffffffffffffffffff1673ffffffffffffffffffffffffffffffffffffffff16815260200190815260200160002060009054906101000a900473ffffffffffffffffffffffffffffffffffffffff169050919050565b600360009054906101000a900473ffffffffffffffffffffffffffffffffffffffff1681565b600660009054906101000a900473ffffffffffffffffffffffffffffffffffffffff1681565b62000d6d600660009054906101000a900473ffffffffffffffffffffffffffffffffffffffff16838362000d71565b5050565b62000df68363a9059cbb60e01b848460405160240162000d939291906200193b565b604051602081830303815290604052907bffffffffffffffffffffffffffffffffffffffffffffffffffffffff19166020820180517bffffffffffffffffffffffffffffffffffffffffffffffffffffffff838183161783525050505062000dfb565b505050565b600062000e5f826040518060400160405280602081526020017f5361666545524332303a206c6f772d6c6576656c2063616c6c206661696c65648152508573ffffffffffffffffffffffffffffffffffffffff1662000eca9092919063ffffffff16565b905060008151111562000ec5578080602001905181019062000e829190620019a5565b62000ec4576040517f08c379a000000000000000000000000000000000000000000000000000000000815260040162000ebb9062001a4d565b60405180910390fd5b5b505050565b606062000edb848460008562000ee4565b90509392505050565b60608247101562000f2c576040517f08c379a000000000000000000000000000000000000000000000000000000000815260040162000f239062001ae5565b60405180910390fd5b62000f378562001006565b62000f79576040517f08c379a000000000000000000000000000000000000000000000000000000000815260040162000f709062001b57565b60405180910390fd5b6000808673ffffffffffffffffffffffffffffffffffffffff16858760405162000fa4919062001bfc565b60006040518083038185875af1925050503d806000811462000fe3576040519150601f19603f3d011682016040523d82523d6000602084013e62000fe8565b606091505b509150915062000ffa82828662001029565b92505050949350505050565b6000808273ffffffffffffffffffffffffffffffffffffffff163b119050919050565b606083156200103b578290506200108e565b6000835111156200104f5782518084602001fd5b816040517f08c379a000000000000000000000000000000000000000000000000000000000815260040162001085919062001c72565b60405180910390fd5b9392505050565b61159b8062001c9783390190565b600080fd5b6000819050919050565b620010bd81620010a8565b8114620010c957600080fd5b50565b600081359050620010dd81620010b2565b92915050565b600060208284031215620010fc57620010fb620010a3565b5b60006200110c84828501620010cc565b91505092915050565b600073ffffffffffffffffffffffffffffffffffffffff82169050919050565b6000620011428262001115565b9050919050565b620011548162001135565b82525050565b600060208201905062001171600083018462001149565b92915050565b620011828162001135565b81146200118e57600080fd5b50565b600081359050620011a28162001177565b92915050565b600060208284031215620011c157620011c0620010a3565b5b6000620011d18482850162001191565b91505092915050565b620011e581620010a8565b82525050565b6000602082019050620012026000830184620011da565b92915050565b600081519050919050565b600082825260208201905092915050565b6000819050602082019050919050565b6200123f8162001135565b82525050565b600062001253838362001234565b60208301905092915050565b6000602082019050919050565b6000620012798262001208565b62001285818562001213565b9350620012928362001224565b8060005b83811015620012c9578151620012ad888262001245565b9750620012ba836200125f565b92505060018101905062001296565b5085935050505092915050565b60006020820190508181036000830152620012f281846200126c565b905092915050565b60008060008060808587031215620013175762001316620010a3565b5b60006200132787828801620010cc565b94505060206200133a87828801620010cc565b93505060406200134d87828801620010cc565b92505060606200136087828801620010cc565b91505092959194509250565b60008060408385031215620013865762001385620010a3565b5b6000620013968582860162001191565b9250506020620013a985828601620010cc565b9150509250929050565b6000819050919050565b6000620013de620013d8620013d28462001115565b620013b3565b62001115565b9050919050565b6000620013f282620013bd565b9050919050565b60006200140682620013e5565b9050919050565b6200141881620013f9565b82525050565b60006020820190506200143560008301846200140d565b92915050565b600082825260208201905092915050565b7f6f6e6c792061646d696e00000000000000000000000000000000000000000000600082015250565b600062001484600a836200143b565b915062001491826200144c565b602082019050919050565b60006020820190508181036000830152620014b78162001475565b9050919050565b7f746f6b656e7320616c72656164792072656c6561736564000000000000000000600082015250565b6000620014f66017836200143b565b91506200150382620014be565b602082019050919050565b600060208201905081810360008301526200152981620014e7565b9050919050565b7f4e487b7100000000000000000000000000000000000000000000000000000000600052603260045260246000fd5b7f4e487b7100000000000000000000000000000000000000000000000000000000600052601260045260246000fd5b7f4e487b7100000000000000000000000000000000000000000000000000000000600052601160045260246000fd5b6000620015ca82620010a8565b9150620015d783620010a8565b925082620015ea57620015e96200155f565b5b828204905092915050565b60006200160282620010a8565b91506200160f83620010a8565b9250817fffffffffffffffffffffffffffffffffffffffffffffffffffffffffffffffff04831182151516156200164b576200164a6200158e565b5b828202905092915050565b600060a0820190506200166d600083018862001149565b6200167c6020830187620011da565b6200168b6040830186620011da565b6200169a6060830185620011da565b620016a96080830184620011da565b9695505050505050565b6000620016c082620010a8565b91507fffffffffffffffffffffffffffffffffffffffffffffffffffffffffffffffff821415620016f657620016f56200158e565b5b600182019050919050565b7f4144445f494e564553544f523a2054686520696e766573746f7273277320616460008201527f64726573732063616e6e6f742062652030000000000000000000000000000000602082015250565b60006200175f6031836200143b565b91506200176c8262001701565b604082019050919050565b60006020820190508181036000830152620017928162001750565b9050919050565b7f4144445f494e564553544f523a20796f752063616e2061646420696e7665737460008201527f6f72206f6e6c79206f6e63652e00000000000000000000000000000000000000602082015250565b6000620017f7602d836200143b565b9150620018048262001799565b604082019050919050565b600060208201905081810360008301526200182a81620017e8565b9050919050565b7f4144445f494e564553544f523a206e6f7420656e6f7567687420746f6b656e7360008201527f206c6566742e0000000000000000000000000000000000000000000000000000602082015250565b60006200188f6026836200143b565b91506200189c8262001831565b604082019050919050565b60006020820190508181036000830152620018c28162001880565b9050919050565b7f4144445f494e564553544f523a206f6e6c7920696e766573746f72732e000000600082015250565b600062001901601d836200143b565b91506200190e82620018c9565b602082019050919050565b600060208201905081810360008301526200193481620018f2565b9050919050565b600060408201905062001952600083018562001149565b620019616020830184620011da565b9392505050565b60008115159050919050565b6200197f8162001968565b81146200198b57600080fd5b50565b6000815190506200199f8162001974565b92915050565b600060208284031215620019be57620019bd620010a3565b5b6000620019ce848285016200198e565b91505092915050565b7f5361666545524332303a204552433230206f7065726174696f6e20646964206e60008201527f6f74207375636365656400000000000000000000000000000000000000000000602082015250565b600062001a35602a836200143b565b915062001a4282620019d7565b604082019050919050565b6000602082019050818103600083015262001a688162001a26565b9050919050565b7f416464726573733a20696e73756666696369656e742062616c616e636520666f60008201527f722063616c6c0000000000000000000000000000000000000000000000000000602082015250565b600062001acd6026836200143b565b915062001ada8262001a6f565b604082019050919050565b6000602082019050818103600083015262001b008162001abe565b9050919050565b7f416464726573733a2063616c6c20746f206e6f6e2d636f6e7472616374000000600082015250565b600062001b3f601d836200143b565b915062001b4c8262001b07565b602082019050919050565b6000602082019050818103600083015262001b728162001b30565b9050919050565b600081519050919050565b600081905092915050565b60005b8381101562001baf57808201518184015260208101905062001b92565b8381111562001bbf576000848401525b50505050565b600062001bd28262001b79565b62001bde818562001b84565b935062001bf081856020860162001b8f565b80840191505092915050565b600062001c0a828462001bc5565b915081905092915050565b600081519050919050565b6000601f19601f8301169050919050565b600062001c3e8262001c15565b62001c4a81856200143b565b935062001c5c81856020860162001b8f565b62001c678162001c20565b840191505092915050565b6000602082019050818103600083015262001c8e818462001c31565b90509291505056fe60806040523480156200001157600080fd5b506040516200159b3803806200159b8339818101604052810190620000379190620002a7565b620000576200004b6200011e60201b60201c565b6200012660201b60201c565b600073ffffffffffffffffffffffffffffffffffffffff168573ffffffffffffffffffffffffffffffffffffffff1614156200009257600080fd5b84600160006101000a81548173ffffffffffffffffffffffffffffffffffffffff021916908373ffffffffffffffffffffffffffffffffffffffff160217905550620000ed8385620001ea60201b6200059a1790919060201c565b600281905550836003819055508160048190555060008111156200011357806006819055505b5050505050620003bb565b600033905090565b60008060009054906101000a900473ffffffffffffffffffffffffffffffffffffffff169050816000806101000a81548173ffffffffffffffffffffffffffffffffffffffff021916908373ffffffffffffffffffffffffffffffffffffffff1602179055508173ffffffffffffffffffffffffffffffffffffffff168173ffffffffffffffffffffffffffffffffffffffff167f8be0079c531659141344cd1fd0a4f28419497f9722a3daafe3b4186f6b6457e060405160405180910390a35050565b60008183620001fa91906200035e565b905092915050565b600080fd5b600073ffffffffffffffffffffffffffffffffffffffff82169050919050565b6000620002348262000207565b9050919050565b620002468162000227565b81146200025257600080fd5b50565b60008151905062000266816200023b565b92915050565b6000819050919050565b62000281816200026c565b81146200028d57600080fd5b50565b600081519050620002a18162000276565b92915050565b600080600080600060a08688031215620002c657620002c562000202565b5b6000620002d68882890162000255565b9550506020620002e98882890162000290565b9450506040620002fc8882890162000290565b93505060606200030f8882890162000290565b9250506080620003228882890162000290565b9150509295509295909350565b7f4e487b7100000000000000000000000000000000000000000000000000000000600052601160045260246000fd5b60006200036b826200026c565b915062000378836200026c565b9250827fffffffffffffffffffffffffffffffffffffffffffffffffffffffffffffffff03821115620003b057620003af6200032f565b5b828201905092915050565b6111d080620003cb6000396000f3fe608060405234801561001057600080fd5b50600436106100b45760003560e01c80638da5cb5b116100715780638da5cb5b1461017b5780639613252114610199578063a7032998146101b7578063be9a6555146101d5578063d6e2b953146101f3578063f2fde38b14610211576100b4565b806313d033c0146100b95780631726cbc8146100d75780631916558714610107578063384711cc1461012357806338af3eed14610153578063715018a614610171575b600080fd5b6100c161022d565b6040516100ce9190610a58565b60405180910390f35b6100f160048036038101906100ec9190610ad6565b610233565b6040516100fe9190610a58565b60405180910390f35b610121600480360381019061011c9190610ad6565b610272565b005b61013d60048036038101906101389190610ad6565b610345565b60405161014a9190610a58565b60405180910390f35b61015b61049b565b6040516101689190610b12565b60405180910390f35b6101796104c1565b005b6101836104d5565b6040516101909190610b12565b60405180910390f35b6101a16104fe565b6040516101ae9190610a58565b60405180910390f35b6101bf610504565b6040516101cc9190610a58565b60405180910390f35b6101dd61050a565b6040516101ea9190610a58565b60405180910390f35b6101fb610510565b6040516102089190610a58565b60405180910390f35b61022b60048036038101906102269190610ad6565b610516565b005b60025481565b60008061023f83610345565b905060008111156102675761025f600654826105b090919063ffffffff16565b91505061026d565b60009150505b919050565b600061027d82610233565b9050600081116102c2576040517f08c379a00000000000000000000000000000000000000000000000000000000081526004016102b990610b8a565b60405180910390fd5b6102d78160065461059a90919063ffffffff16565b60068190555061030a82600160009054906101000a900473ffffffffffffffffffffffffffffffffffffffff16836105c6565b7ffb81f9b30d73d830c3544b34d827c08142579ee75710b490bab0b3995468c565816040516103399190610a58565b60405180910390a15050565b6000808273ffffffffffffffffffffffffffffffffffffffff166370a08231306040518263ffffffff1660e01b81526004016103819190610b12565b60206040518083038186803b15801561039957600080fd5b505afa1580156103ad573d6000803e3d6000fd5b505050506040513d601f19601f820116820180604052508101906103d19190610bd6565b905060006103ea6006548361059a90919063ffffffff16565b90506000601e6018603c80600354426104039190610c32565b61040d9190610c95565b6104179190610c95565b6104219190610c95565b61042b9190610c95565b90506002544210156104435760009350505050610496565b6000610478606461046a6004548561045b9190610cc6565b8661064c90919063ffffffff16565b61066290919063ffffffff16565b90508281111561048e5782945050505050610496565b809450505050505b919050565b600160009054906101000a900473ffffffffffffffffffffffffffffffffffffffff1681565b6104c9610678565b6104d360006106f6565b565b60008060009054906101000a900473ffffffffffffffffffffffffffffffffffffffff16905090565b60065481565b60045481565b60035481565b60055481565b61051e610678565b600073ffffffffffffffffffffffffffffffffffffffff168173ffffffffffffffffffffffffffffffffffffffff16141561058e576040517f08c379a000000000000000000000000000000000000000000000000000000000815260040161058590610d92565b60405180910390fd5b610597816106f6565b50565b600081836105a89190610db2565b905092915050565b600081836105be9190610c32565b905092915050565b6106478363a9059cbb60e01b84846040516024016105e5929190610e08565b604051602081830303815290604052907bffffffffffffffffffffffffffffffffffffffffffffffffffffffff19166020820180517bffffffffffffffffffffffffffffffffffffffffffffffffffffffff83818316178352505050506107ba565b505050565b6000818361065a9190610cc6565b905092915050565b600081836106709190610c95565b905092915050565b610680610881565b73ffffffffffffffffffffffffffffffffffffffff1661069e6104d5565b73ffffffffffffffffffffffffffffffffffffffff16146106f4576040517f08c379a00000000000000000000000000000000000000000000000000000000081526004016106eb90610e7d565b60405180910390fd5b565b60008060009054906101000a900473ffffffffffffffffffffffffffffffffffffffff169050816000806101000a81548173ffffffffffffffffffffffffffffffffffffffff021916908373ffffffffffffffffffffffffffffffffffffffff1602179055508173ffffffffffffffffffffffffffffffffffffffff168173ffffffffffffffffffffffffffffffffffffffff167f8be0079c531659141344cd1fd0a4f28419497f9722a3daafe3b4186f6b6457e060405160405180910390a35050565b600061081c826040518060400160405280602081526020017f5361666545524332303a206c6f772d6c6576656c2063616c6c206661696c65648152508573ffffffffffffffffffffffffffffffffffffffff166108899092919063ffffffff16565b905060008151111561087c578080602001905181019061083c9190610ed5565b61087b576040517f08c379a000000000000000000000000000000000000000000000000000000000815260040161087290610f74565b60405180910390fd5b5b505050565b600033905090565b606061089884846000856108a1565b90509392505050565b6060824710156108e6576040517f08c379a00000000000000000000000000000000000000000000000000000000081526004016108dd90611006565b60405180910390fd5b6108ef856109b5565b61092e576040517f08c379a000000000000000000000000000000000000000000000000000000000815260040161092590611072565b60405180910390fd5b6000808673ffffffffffffffffffffffffffffffffffffffff168587604051610957919061110c565b60006040518083038185875af1925050503d8060008114610994576040519150601f19603f3d011682016040523d82523d6000602084013e610999565b606091505b50915091506109a98282866109d8565b92505050949350505050565b6000808273ffffffffffffffffffffffffffffffffffffffff163b119050919050565b606083156109e857829050610a38565b6000835111156109fb5782518084602001fd5b816040517f08c379a0000000000000000000000000000000000000000000000000000000008152600401610a2f9190611178565b60405180910390fd5b9392505050565b6000819050919050565b610a5281610a3f565b82525050565b6000602082019050610a6d6000830184610a49565b92915050565b600080fd5b600073ffffffffffffffffffffffffffffffffffffffff82169050919050565b6000610aa382610a78565b9050919050565b610ab381610a98565b8114610abe57600080fd5b50565b600081359050610ad081610aaa565b92915050565b600060208284031215610aec57610aeb610a73565b5b6000610afa84828501610ac1565b91505092915050565b610b0c81610a98565b82525050565b6000602082019050610b276000830184610b03565b92915050565b600082825260208201905092915050565b7f746f6b656e732063616e6e6f742062652072656c656173656400000000000000600082015250565b6000610b74601983610b2d565b9150610b7f82610b3e565b602082019050919050565b60006020820190508181036000830152610ba381610b67565b9050919050565b610bb381610a3f565b8114610bbe57600080fd5b50565b600081519050610bd081610baa565b92915050565b600060208284031215610bec57610beb610a73565b5b6000610bfa84828501610bc1565b91505092915050565b7f4e487b7100000000000000000000000000000000000000000000000000000000600052601160045260246000fd5b6000610c3d82610a3f565b9150610c4883610a3f565b925082821015610c5b57610c5a610c03565b5b828203905092915050565b7f4e487b7100000000000000000000000000000000000000000000000000000000600052601260045260246000fd5b6000610ca082610a3f565b9150610cab83610a3f565b925082610cbb57610cba610c66565b5b828204905092915050565b6000610cd182610a3f565b9150610cdc83610a3f565b9250817fffffffffffffffffffffffffffffffffffffffffffffffffffffffffffffffff0483118215151615610d1557610d14610c03565b5b828202905092915050565b7f4f776e61626c653a206e6577206f776e657220697320746865207a65726f206160008201527f6464726573730000000000000000000000000000000000000000000000000000602082015250565b6000610d7c602683610b2d565b9150610d8782610d20565b604082019050919050565b60006020820190508181036000830152610dab81610d6f565b9050919050565b6000610dbd82610a3f565b9150610dc883610a3f565b9250827fffffffffffffffffffffffffffffffffffffffffffffffffffffffffffffffff03821115610dfd57610dfc610c03565b5b828201905092915050565b6000604082019050610e1d6000830185610b03565b610e2a6020830184610a49565b9392505050565b7f4f776e61626c653a2063616c6c6572206973206e6f7420746865206f776e6572600082015250565b6000610e67602083610b2d565b9150610e7282610e31565b602082019050919050565b60006020820190508181036000830152610e9681610e5a565b9050919050565b60008115159050919050565b610eb281610e9d565b8114610ebd57600080fd5b50565b600081519050610ecf81610ea9565b92915050565b600060208284031215610eeb57610eea610a73565b5b6000610ef984828501610ec0565b91505092915050565b7f5361666545524332303a204552433230206f7065726174696f6e20646964206e60008201527f6f74207375636365656400000000000000000000000000000000000000000000602082015250565b6000610f5e602a83610b2d565b9150610f6982610f02565b604082019050919050565b60006020820190508181036000830152610f8d81610f51565b9050919050565b7f416464726573733a20696e73756666696369656e742062616c616e636520666f60008201527f722063616c6c0000000000000000000000000000000000000000000000000000602082015250565b6000610ff0602683610b2d565b9150610ffb82610f94565b604082019050919050565b6000602082019050818103600083015261101f81610fe3565b9050919050565b7f416464726573733a2063616c6c20746f206e6f6e2d636f6e7472616374000000600082015250565b600061105c601d83610b2d565b915061106782611026565b602082019050919050565b6000602082019050818103600083015261108b8161104f565b9050919050565b600081519050919050565b600081905092915050565b60005b838110156110c65780820151818401526020810190506110ab565b838111156110d5576000848401525b50505050565b60006110e682611092565b6110f0818561109d565b93506111008185602086016110a8565b80840191505092915050565b600061111882846110db565b915081905092915050565b600081519050919050565b6000601f19601f8301169050919050565b600061114a82611123565b6111548185610b2d565b93506111648185602086016110a8565b61116d8161112e565b840191505092915050565b60006020820190508181036000830152611192818461113f565b90509291505056fea26469706673582212204211320ccb1cd3ae994b8a3f05a94663e914b6b98256aad1256c73dd9a81a75b64736f6c63430008090033a26469706673582212209f47e55bbe27c785c50c6ccbd13779329578a2af9108d9b2d833873173c913a464736f6c63430008090033",
  "linkReferences": {},
  "deployedLinkReferences": {}
}