{
  "_format": "hh-sol-artifact-1",
  "contractName": "Seed",
  "sourceName": "contracts/Seed.sol",
  "abi": [
    {
      "inputs": [
        {
          "internalType": "address",
          "name": "tokenAddress",
          "type": "address"
        },
        {
          "internalType": "uint256",
          "name": "_availableTokens",
          "type": "uint256"
        }
      ],
      "stateMutability": "nonpayable",
      "type": "constructor"
    },
    {
      "inputs": [
        {
          "internalType": "address",
          "name": "_investor",
          "type": "address"
        },
        {
          "internalType": "uint256",
          "name": "_tokensAmount",
          "type": "uint256"
        }
      ],
      "name": "addInvestor",
      "outputs": [],
      "stateMutability": "nonpayable",
      "type": "function"
    },
    {
      "inputs": [],
      "name": "admin",
      "outputs": [
        {
          "internalType": "address",
          "name": "",
          "type": "address"
        }
      ],
      "stateMutability": "view",
      "type": "function"
    },
    {
      "inputs": [],
      "name": "availableTokens",
      "outputs": [
        {
          "internalType": "uint256",
          "name": "",
          "type": "uint256"
        }
      ],
      "stateMutability": "view",
      "type": "function"
    },
    {
      "inputs": [
        {
          "internalType": "address",
          "name": "newAdmin",
          "type": "address"
        }
      ],
      "name": "changeAdmin",
      "outputs": [],
      "stateMutability": "nonpayable",
      "type": "function"
    },
    {
      "inputs": [
        {
          "internalType": "address",
          "name": "_investor",
          "type": "address"
        }
      ],
      "name": "getInvestorBalance",
      "outputs": [
        {
          "internalType": "uint256",
          "name": "",
          "type": "uint256"
        }
      ],
      "stateMutability": "view",
      "type": "function"
    },
    {
      "inputs": [
        {
          "internalType": "address",
          "name": "_investor",
          "type": "address"
        }
      ],
      "name": "getInvestorVestingAddress",
      "outputs": [
        {
          "internalType": "address",
          "name": "",
          "type": "address"
        }
      ],
      "stateMutability": "view",
      "type": "function"
    },
    {
      "inputs": [],
      "name": "getInvestors",
      "outputs": [
        {
          "internalType": "address[]",
          "name": "",
          "type": "address[]"
        }
      ],
      "stateMutability": "view",
      "type": "function"
    },
    {
      "inputs": [
        {
          "internalType": "address",
          "name": "",
          "type": "address"
        }
      ],
      "name": "investorTokens",
      "outputs": [
        {
          "internalType": "uint256",
          "name": "",
          "type": "uint256"
        }
      ],
      "stateMutability": "view",
      "type": "function"
    },
    {
      "inputs": [
        {
          "internalType": "address",
          "name": "",
          "type": "address"
        }
      ],
      "name": "investorVestings",
      "outputs": [
        {
          "internalType": "address",
          "name": "",
          "type": "address"
        }
      ],
      "stateMutability": "view",
      "type": "function"
    },
    {
      "inputs": [
        {
          "internalType": "uint256",
          "name": "",
          "type": "uint256"
        }
      ],
      "name": "investors",
      "outputs": [
        {
          "internalType": "address",
          "name": "",
          "type": "address"
        }
      ],
      "stateMutability": "view",
      "type": "function"
    },
    {
      "inputs": [
        {
          "internalType": "uint256",
          "name": "_start",
          "type": "uint256"
        },
        {
          "internalType": "uint256",
          "name": "_cliff",
          "type": "uint256"
        },
        {
          "internalType": "uint256",
          "name": "_releaseRate",
          "type": "uint256"
        },
        {
          "internalType": "uint256",
          "name": "_initialReleaseRate",
          "type": "uint256"
        }
      ],
      "name": "releaseTokens",
      "outputs": [],
      "stateMutability": "nonpayable",
      "type": "function"
    },
    {
      "inputs": [],
      "name": "startTime",
      "outputs": [
        {
          "internalType": "uint256",
          "name": "",
          "type": "uint256"
        }
      ],
      "stateMutability": "view",
      "type": "function"
    },
    {
      "inputs": [],
      "name": "token",
      "outputs": [
        {
          "internalType": "contract MoonappToken",
          "name": "",
          "type": "address"
        }
      ],
      "stateMutability": "view",
      "type": "function"
    }
  ],
  "bytecode": "0x60806040523480156200001157600080fd5b506040516200353b3803806200353b833981810160405281019062000037919062000182565b81600660006101000a81548173ffffffffffffffffffffffffffffffffffffffff021916908373ffffffffffffffffffffffffffffffffffffffff16021790555033600360006101000a81548173ffffffffffffffffffffffffffffffffffffffff021916908373ffffffffffffffffffffffffffffffffffffffff160217905550670de0b6b3a764000081620000cf9190620001f8565b600481905550505062000259565b600080fd5b600073ffffffffffffffffffffffffffffffffffffffff82169050919050565b60006200010f82620000e2565b9050919050565b620001218162000102565b81146200012d57600080fd5b50565b600081519050620001418162000116565b92915050565b6000819050919050565b6200015c8162000147565b81146200016857600080fd5b50565b6000815190506200017c8162000151565b92915050565b600080604083850312156200019c576200019b620000dd565b5b6000620001ac8582860162000130565b9250506020620001bf858286016200016b565b9150509250929050565b7f4e487b7100000000000000000000000000000000000000000000000000000000600052601160045260246000fd5b6000620002058262000147565b9150620002128362000147565b9250817fffffffffffffffffffffffffffffffffffffffffffffffffffffffffffffffff04831182151516156200024e576200024d620001c9565b5b828202905092915050565b6132d280620002696000396000f3fe60806040523480156200001157600080fd5b5060043610620000e25760003560e01c8063b2f5a54c1162000099578063ec20b457116200006f578063ec20b4571462000265578063f5a7c8231462000285578063f851a44014620002bb578063fc0c546a14620002dd57620000e2565b8063b2f5a54c14620001ed578063e10ad6bf146200020f578063e68e9950146200022f57620000e2565b80633feb5f2b14620000e75780635ea63913146200011d57806369bb4dc2146200015357806378e9792514620001755780638f2839701462000197578063a714485814620001b7575b600080fd5b620001056004803603810190620000ff919062001057565b620002ff565b604051620001149190620010ce565b60405180910390f35b6200013b60048036038101906200013591906200111c565b6200033f565b6040516200014a91906200115f565b60405180910390f35b6200015d62000388565b6040516200016c91906200115f565b60405180910390f35b6200017f6200038e565b6040516200018e91906200115f565b60405180910390f35b620001b56004803603810190620001af91906200111c565b62000394565b005b620001d56004803603810190620001cf91906200111c565b6200046b565b604051620001e49190620010ce565b60405180910390f35b620001f76200049e565b6040516200020691906200124a565b60405180910390f35b6200022d60048036038101906200022791906200126e565b6200052e565b005b6200024d60048036038101906200024791906200111c565b62000939565b6040516200025c91906200115f565b60405180910390f35b6200028360048036038101906200027d9190620012e0565b62000951565b005b620002a360048036038101906200029d91906200111c565b62000c30565b604051620002b29190620010ce565b60405180910390f35b620002c562000c99565b604051620002d49190620010ce565b60405180910390f35b620002e762000cbf565b604051620002f6919062001392565b60405180910390f35b600081815481106200031057600080fd5b906000526020600020016000915054906101000a900473ffffffffffffffffffffffffffffffffffffffff1681565b6000600160008373ffffffffffffffffffffffffffffffffffffffff1673ffffffffffffffffffffffffffffffffffffffff168152602001908152602001600020549050919050565b60045481565b60055481565b600360009054906101000a900473ffffffffffffffffffffffffffffffffffffffff1673ffffffffffffffffffffffffffffffffffffffff163373ffffffffffffffffffffffffffffffffffffffff161462000427576040517f08c379a00000000000000000000000000000000000000000000000000000000081526004016200041e9062001410565b60405180910390fd5b80600360006101000a81548173ffffffffffffffffffffffffffffffffffffffff021916908373ffffffffffffffffffffffffffffffffffffffff16021790555050565b60026020528060005260406000206000915054906101000a900473ffffffffffffffffffffffffffffffffffffffff1681565b606060008054806020026020016040519081016040528092919081815260200182805480156200052457602002820191906000526020600020905b8160009054906101000a900473ffffffffffffffffffffffffffffffffffffffff1673ffffffffffffffffffffffffffffffffffffffff1681526020019060010190808311620004d9575b5050505050905090565b600360009054906101000a900473ffffffffffffffffffffffffffffffffffffffff1673ffffffffffffffffffffffffffffffffffffffff163373ffffffffffffffffffffffffffffffffffffffff1614620005c1576040517f08c379a0000000000000000000000000000000000000000000000000000000008152600401620005b89062001410565b60405180910390fd5b60006005541462000609576040517f08c379a0000000000000000000000000000000000000000000000000000000008152600401620006009062001482565b60405180910390fd5b8360058190555060008080549050905060005b818110156200093157600073ffffffffffffffffffffffffffffffffffffffff1660026000808481548110620006575762000656620014a4565b5b9060005260206000200160009054906101000a900473ffffffffffffffffffffffffffffffffffffffff1673ffffffffffffffffffffffffffffffffffffffff1673ffffffffffffffffffffffffffffffffffffffff16815260200190815260200160002060009054906101000a900473ffffffffffffffffffffffffffffffffffffffff1673ffffffffffffffffffffffffffffffffffffffff1614620006ff576200091b565b6000600160008084815481106200071b576200071a620014a4565b5b9060005260206000200160009054906101000a900473ffffffffffffffffffffffffffffffffffffffff1673ffffffffffffffffffffffffffffffffffffffff1673ffffffffffffffffffffffffffffffffffffffff16815260200190815260200160002054905060008460648362000795919062001531565b620007a1919062001569565b90506000808481548110620007bb57620007ba620014a4565b5b9060005260206000200160009054906101000a900473ffffffffffffffffffffffffffffffffffffffff16600554898985604051620007fa9062001009565b6200080a959493929190620015ca565b604051809103906000f08015801562000827573d6000803e3d6000fd5b50905062000859600660009054906101000a900473ffffffffffffffffffffffffffffffffffffffff16828562000ce5565b8060026000808781548110620008745762000873620014a4565b5b9060005260206000200160009054906101000a900473ffffffffffffffffffffffffffffffffffffffff1673ffffffffffffffffffffffffffffffffffffffff1673ffffffffffffffffffffffffffffffffffffffff16815260200190815260200160002060006101000a81548173ffffffffffffffffffffffffffffffffffffffff021916908373ffffffffffffffffffffffffffffffffffffffff1602179055505050505b8080620009289062001627565b9150506200061c565b505050505050565b60016020528060005260406000206000915090505481565b6000670de0b6b3a76400008262000969919062001569565b9050600360009054906101000a900473ffffffffffffffffffffffffffffffffffffffff1673ffffffffffffffffffffffffffffffffffffffff163373ffffffffffffffffffffffffffffffffffffffff1614620009fe576040517f08c379a0000000000000000000000000000000000000000000000000000000008152600401620009f59062001410565b60405180910390fd5b600073ffffffffffffffffffffffffffffffffffffffff168373ffffffffffffffffffffffffffffffffffffffff16141562000a71576040517f08c379a000000000000000000000000000000000000000000000000000000000815260040162000a6890620016eb565b60405180910390fd5b6000600160008573ffffffffffffffffffffffffffffffffffffffff1673ffffffffffffffffffffffffffffffffffffffff168152602001908152602001600020541462000af6576040517f08c379a000000000000000000000000000000000000000000000000000000000815260040162000aed9062001783565b60405180910390fd5b60045481111562000b3e576040517f08c379a000000000000000000000000000000000000000000000000000000000815260040162000b35906200181b565b60405180910390fd5b6000811162000b84576040517f08c379a000000000000000000000000000000000000000000000000000000000815260040162000b7b906200188d565b60405180910390fd5b6000839080600181540180825580915050600190039060005260206000200160009091909190916101000a81548173ffffffffffffffffffffffffffffffffffffffff021916908373ffffffffffffffffffffffffffffffffffffffff16021790555080600160008573ffffffffffffffffffffffffffffffffffffffff1673ffffffffffffffffffffffffffffffffffffffff16815260200190815260200160002081905550505050565b6000600260008373ffffffffffffffffffffffffffffffffffffffff1673ffffffffffffffffffffffffffffffffffffffff16815260200190815260200160002060009054906101000a900473ffffffffffffffffffffffffffffffffffffffff169050919050565b600360009054906101000a900473ffffffffffffffffffffffffffffffffffffffff1681565b600660009054906101000a900473ffffffffffffffffffffffffffffffffffffffff1681565b62000d6a8363a9059cbb60e01b848460405160240162000d07929190620018af565b604051602081830303815290604052907bffffffffffffffffffffffffffffffffffffffffffffffffffffffff19166020820180517bffffffffffffffffffffffffffffffffffffffffffffffffffffffff838183161783525050505062000d6f565b505050565b600062000dd3826040518060400160405280602081526020017f5361666545524332303a206c6f772d6c6576656c2063616c6c206661696c65648152508573ffffffffffffffffffffffffffffffffffffffff1662000e3e9092919063ffffffff16565b905060008151111562000e39578080602001905181019062000df6919062001919565b62000e38576040517f08c379a000000000000000000000000000000000000000000000000000000000815260040162000e2f90620019c1565b60405180910390fd5b5b505050565b606062000e4f848460008562000e58565b90509392505050565b60608247101562000ea0576040517f08c379a000000000000000000000000000000000000000000000000000000000815260040162000e979062001a59565b60405180910390fd5b62000eab8562000f7a565b62000eed576040517f08c379a000000000000000000000000000000000000000000000000000000000815260040162000ee49062001acb565b60405180910390fd5b6000808673ffffffffffffffffffffffffffffffffffffffff16858760405162000f18919062001b70565b60006040518083038185875af1925050503d806000811462000f57576040519150601f19603f3d011682016040523d82523d6000602084013e62000f5c565b606091505b509150915062000f6e82828662000f9d565b92505050949350505050565b6000808273ffffffffffffffffffffffffffffffffffffffff163b119050919050565b6060831562000faf5782905062001002565b60008351111562000fc35782518084602001fd5b816040517f08c379a000000000000000000000000000000000000000000000000000000000815260040162000ff9919062001be6565b60405180910390fd5b9392505050565b6116928062001c0b83390190565b600080fd5b6000819050919050565b62001031816200101c565b81146200103d57600080fd5b50565b600081359050620010518162001026565b92915050565b60006020828403121562001070576200106f62001017565b5b6000620010808482850162001040565b91505092915050565b600073ffffffffffffffffffffffffffffffffffffffff82169050919050565b6000620010b68262001089565b9050919050565b620010c881620010a9565b82525050565b6000602082019050620010e56000830184620010bd565b92915050565b620010f681620010a9565b81146200110257600080fd5b50565b6000813590506200111681620010eb565b92915050565b60006020828403121562001135576200113462001017565b5b6000620011458482850162001105565b91505092915050565b62001159816200101c565b82525050565b60006020820190506200117660008301846200114e565b92915050565b600081519050919050565b600082825260208201905092915050565b6000819050602082019050919050565b620011b381620010a9565b82525050565b6000620011c78383620011a8565b60208301905092915050565b6000602082019050919050565b6000620011ed826200117c565b620011f9818562001187565b9350620012068362001198565b8060005b838110156200123d578151620012218882620011b9565b97506200122e83620011d3565b9250506001810190506200120a565b5085935050505092915050565b60006020820190508181036000830152620012668184620011e0565b905092915050565b600080600080608085870312156200128b576200128a62001017565b5b60006200129b8782880162001040565b9450506020620012ae8782880162001040565b9350506040620012c18782880162001040565b9250506060620012d48782880162001040565b91505092959194509250565b60008060408385031215620012fa57620012f962001017565b5b60006200130a8582860162001105565b92505060206200131d8582860162001040565b9150509250929050565b6000819050919050565b6000620013526200134c620013468462001089565b62001327565b62001089565b9050919050565b6000620013668262001331565b9050919050565b60006200137a8262001359565b9050919050565b6200138c816200136d565b82525050565b6000602082019050620013a9600083018462001381565b92915050565b600082825260208201905092915050565b7f6f6e6c792061646d696e00000000000000000000000000000000000000000000600082015250565b6000620013f8600a83620013af565b91506200140582620013c0565b602082019050919050565b600060208201905081810360008301526200142b81620013e9565b9050919050565b7f746f6b656e7320616c72656164792072656c6561736564000000000000000000600082015250565b60006200146a601783620013af565b9150620014778262001432565b602082019050919050565b600060208201905081810360008301526200149d816200145b565b9050919050565b7f4e487b7100000000000000000000000000000000000000000000000000000000600052603260045260246000fd5b7f4e487b7100000000000000000000000000000000000000000000000000000000600052601260045260246000fd5b7f4e487b7100000000000000000000000000000000000000000000000000000000600052601160045260246000fd5b60006200153e826200101c565b91506200154b836200101c565b9250826200155e576200155d620014d3565b5b828204905092915050565b600062001576826200101c565b915062001583836200101c565b9250817fffffffffffffffffffffffffffffffffffffffffffffffffffffffffffffffff0483118215151615620015bf57620015be62001502565b5b828202905092915050565b600060a082019050620015e16000830188620010bd565b620015f060208301876200114e565b620015ff60408301866200114e565b6200160e60608301856200114e565b6200161d60808301846200114e565b9695505050505050565b600062001634826200101c565b91507fffffffffffffffffffffffffffffffffffffffffffffffffffffffffffffffff8214156200166a576200166962001502565b5b600182019050919050565b7f4144445f494e564553544f523a2054686520696e766573746f7273277320616460008201527f64726573732063616e6e6f742062652030000000000000000000000000000000602082015250565b6000620016d3603183620013af565b9150620016e08262001675565b604082019050919050565b600060208201905081810360008301526200170681620016c4565b9050919050565b7f4144445f494e564553544f523a20796f752063616e2061646420696e7665737460008201527f6f72206f6e6c79206f6e63652e00000000000000000000000000000000000000602082015250565b60006200176b602d83620013af565b915062001778826200170d565b604082019050919050565b600060208201905081810360008301526200179e816200175c565b9050919050565b7f4144445f494e564553544f523a206e6f7420656e6f7567687420746f6b656e7360008201527f206c6566742e0000000000000000000000000000000000000000000000000000602082015250565b600062001803602683620013af565b91506200181082620017a5565b604082019050919050565b600060208201905081810360008301526200183681620017f4565b9050919050565b7f4144445f494e564553544f523a206f6e6c7920696e766573746f72732e000000600082015250565b600062001875601d83620013af565b915062001882826200183d565b602082019050919050565b60006020820190508181036000830152620018a88162001866565b9050919050565b6000604082019050620018c66000830185620010bd565b620018d560208301846200114e565b9392505050565b60008115159050919050565b620018f381620018dc565b8114620018ff57600080fd5b50565b6000815190506200191381620018e8565b92915050565b60006020828403121562001932576200193162001017565b5b6000620019428482850162001902565b91505092915050565b7f5361666545524332303a204552433230206f7065726174696f6e20646964206e60008201527f6f74207375636365656400000000000000000000000000000000000000000000602082015250565b6000620019a9602a83620013af565b9150620019b6826200194b565b604082019050919050565b60006020820190508181036000830152620019dc816200199a565b9050919050565b7f416464726573733a20696e73756666696369656e742062616c616e636520666f60008201527f722063616c6c0000000000000000000000000000000000000000000000000000602082015250565b600062001a41602683620013af565b915062001a4e82620019e3565b604082019050919050565b6000602082019050818103600083015262001a748162001a32565b9050919050565b7f416464726573733a2063616c6c20746f206e6f6e2d636f6e7472616374000000600082015250565b600062001ab3601d83620013af565b915062001ac08262001a7b565b602082019050919050565b6000602082019050818103600083015262001ae68162001aa4565b9050919050565b600081519050919050565b600081905092915050565b60005b8381101562001b2357808201518184015260208101905062001b06565b8381111562001b33576000848401525b50505050565b600062001b468262001aed565b62001b52818562001af8565b935062001b6481856020860162001b03565b80840191505092915050565b600062001b7e828462001b39565b915081905092915050565b600081519050919050565b6000601f19601f8301169050919050565b600062001bb28262001b89565b62001bbe8185620013af565b935062001bd081856020860162001b03565b62001bdb8162001b94565b840191505092915050565b6000602082019050818103600083015262001c02818462001ba5565b90509291505056fe60806040523480156200001157600080fd5b5060405162001692380380620016928339818101604052810190620000379190620002a7565b620000576200004b6200011e60201b60201c565b6200012660201b60201c565b600073ffffffffffffffffffffffffffffffffffffffff168573ffffffffffffffffffffffffffffffffffffffff1614156200009257600080fd5b84600160006101000a81548173ffffffffffffffffffffffffffffffffffffffff021916908373ffffffffffffffffffffffffffffffffffffffff160217905550620000ed8385620001ea60201b620006911790919060201c565b600281905550836003819055508160048190555060008111156200011357806005819055505b5050505050620003bb565b600033905090565b60008060009054906101000a900473ffffffffffffffffffffffffffffffffffffffff169050816000806101000a81548173ffffffffffffffffffffffffffffffffffffffff021916908373ffffffffffffffffffffffffffffffffffffffff1602179055508173ffffffffffffffffffffffffffffffffffffffff168173ffffffffffffffffffffffffffffffffffffffff167f8be0079c531659141344cd1fd0a4f28419497f9722a3daafe3b4186f6b6457e060405160405180910390a35050565b60008183620001fa91906200035e565b905092915050565b600080fd5b600073ffffffffffffffffffffffffffffffffffffffff82169050919050565b6000620002348262000207565b9050919050565b620002468162000227565b81146200025257600080fd5b50565b60008151905062000266816200023b565b92915050565b6000819050919050565b62000281816200026c565b81146200028d57600080fd5b50565b600081519050620002a18162000276565b92915050565b600080600080600060a08688031215620002c657620002c562000202565b5b6000620002d68882890162000255565b9550506020620002e98882890162000290565b9450506040620002fc8882890162000290565b93505060606200030f8882890162000290565b9250506080620003228882890162000290565b9150509295509295909350565b7f4e487b7100000000000000000000000000000000000000000000000000000000600052601160045260246000fd5b60006200036b826200026c565b915062000378836200026c565b9250827fffffffffffffffffffffffffffffffffffffffffffffffffffffffffffffffff03821115620003b057620003af6200032f565b5b828201905092915050565b6112c780620003cb6000396000f3fe608060405234801561001057600080fd5b50600436106100cf5760003560e01c80638da5cb5b1161008c578063a703299811610066578063a703299814610202578063be9a655514610220578063d6e2b9531461023e578063f2fde38b1461025c576100cf565b80638da5cb5b1461019657806396132521146101b4578063a153e708146101d2576100cf565b806313d033c0146100d45780631726cbc8146100f25780631916558714610122578063384711cc1461013e57806338af3eed1461016e578063715018a61461018c575b600080fd5b6100dc610278565b6040516100e99190610b4f565b60405180910390f35b61010c60048036038101906101079190610bcd565b61027e565b6040516101199190610b4f565b60405180910390f35b61013c60048036038101906101379190610bcd565b6102bd565b005b61015860048036038101906101539190610bcd565b610390565b6040516101659190610b4f565b60405180910390f35b6101766104fb565b6040516101839190610c09565b60405180910390f35b610194610521565b005b61019e610535565b6040516101ab9190610c09565b60405180910390f35b6101bc61055e565b6040516101c99190610b4f565b60405180910390f35b6101ec60048036038101906101e79190610bcd565b610564565b6040516101f99190610b4f565b60405180910390f35b61020a6105fb565b6040516102179190610b4f565b60405180910390f35b610228610601565b6040516102359190610b4f565b60405180910390f35b610246610607565b6040516102539190610b4f565b60405180910390f35b61027660048036038101906102719190610bcd565b61060d565b005b60025481565b60008061028a83610390565b905060008111156102b2576102aa600654826106a790919063ffffffff16565b9150506102b8565b60009150505b919050565b60006102c88261027e565b90506000811161030d576040517f08c379a000000000000000000000000000000000000000000000000000000000815260040161030490610c81565b60405180910390fd5b6103228160065461069190919063ffffffff16565b60068190555061035582600160009054906101000a900473ffffffffffffffffffffffffffffffffffffffff16836106bd565b7ffb81f9b30d73d830c3544b34d827c08142579ee75710b490bab0b3995468c565816040516103849190610b4f565b60405180910390a15050565b6000808273ffffffffffffffffffffffffffffffffffffffff166370a08231306040518263ffffffff1660e01b81526004016103cc9190610c09565b60206040518083038186803b1580156103e457600080fd5b505afa1580156103f8573d6000803e3d6000fd5b505050506040513d601f19601f8201168201806040525081019061041c9190610ccd565b905060006104356006548361069190919063ffffffff16565b90506000601e6018603c806003544261044e9190610d29565b6104589190610d8c565b6104629190610d8c565b61046c9190610d8c565b6104769190610d8c565b905060025442101561048f5760055493505050506104f6565b60006104d86005546104ca60646104bc600454876104ad9190610dbd565b8861074390919063ffffffff16565b61075990919063ffffffff16565b61069190919063ffffffff16565b9050828111156104ee57829450505050506104f6565b809450505050505b919050565b600160009054906101000a900473ffffffffffffffffffffffffffffffffffffffff1681565b61052961076f565b61053360006107ed565b565b60008060009054906101000a900473ffffffffffffffffffffffffffffffffffffffff16905090565b60065481565b6000808273ffffffffffffffffffffffffffffffffffffffff166370a08231306040518263ffffffff1660e01b81526004016105a09190610c09565b60206040518083038186803b1580156105b857600080fd5b505afa1580156105cc573d6000803e3d6000fd5b505050506040513d601f19601f820116820180604052508101906105f09190610ccd565b905080915050919050565b60045481565b60035481565b60055481565b61061561076f565b600073ffffffffffffffffffffffffffffffffffffffff168173ffffffffffffffffffffffffffffffffffffffff161415610685576040517f08c379a000000000000000000000000000000000000000000000000000000000815260040161067c90610e89565b60405180910390fd5b61068e816107ed565b50565b6000818361069f9190610ea9565b905092915050565b600081836106b59190610d29565b905092915050565b61073e8363a9059cbb60e01b84846040516024016106dc929190610eff565b604051602081830303815290604052907bffffffffffffffffffffffffffffffffffffffffffffffffffffffff19166020820180517bffffffffffffffffffffffffffffffffffffffffffffffffffffffff83818316178352505050506108b1565b505050565b600081836107519190610dbd565b905092915050565b600081836107679190610d8c565b905092915050565b610777610978565b73ffffffffffffffffffffffffffffffffffffffff16610795610535565b73ffffffffffffffffffffffffffffffffffffffff16146107eb576040517f08c379a00000000000000000000000000000000000000000000000000000000081526004016107e290610f74565b60405180910390fd5b565b60008060009054906101000a900473ffffffffffffffffffffffffffffffffffffffff169050816000806101000a81548173ffffffffffffffffffffffffffffffffffffffff021916908373ffffffffffffffffffffffffffffffffffffffff1602179055508173ffffffffffffffffffffffffffffffffffffffff168173ffffffffffffffffffffffffffffffffffffffff167f8be0079c531659141344cd1fd0a4f28419497f9722a3daafe3b4186f6b6457e060405160405180910390a35050565b6000610913826040518060400160405280602081526020017f5361666545524332303a206c6f772d6c6576656c2063616c6c206661696c65648152508573ffffffffffffffffffffffffffffffffffffffff166109809092919063ffffffff16565b905060008151111561097357808060200190518101906109339190610fcc565b610972576040517f08c379a00000000000000000000000000000000000000000000000000000000081526004016109699061106b565b60405180910390fd5b5b505050565b600033905090565b606061098f8484600085610998565b90509392505050565b6060824710156109dd576040517f08c379a00000000000000000000000000000000000000000000000000000000081526004016109d4906110fd565b60405180910390fd5b6109e685610aac565b610a25576040517f08c379a0000000000000000000000000000000000000000000000000000000008152600401610a1c90611169565b60405180910390fd5b6000808673ffffffffffffffffffffffffffffffffffffffff168587604051610a4e9190611203565b60006040518083038185875af1925050503d8060008114610a8b576040519150601f19603f3d011682016040523d82523d6000602084013e610a90565b606091505b5091509150610aa0828286610acf565b92505050949350505050565b6000808273ffffffffffffffffffffffffffffffffffffffff163b119050919050565b60608315610adf57829050610b2f565b600083511115610af25782518084602001fd5b816040517f08c379a0000000000000000000000000000000000000000000000000000000008152600401610b26919061126f565b60405180910390fd5b9392505050565b6000819050919050565b610b4981610b36565b82525050565b6000602082019050610b646000830184610b40565b92915050565b600080fd5b600073ffffffffffffffffffffffffffffffffffffffff82169050919050565b6000610b9a82610b6f565b9050919050565b610baa81610b8f565b8114610bb557600080fd5b50565b600081359050610bc781610ba1565b92915050565b600060208284031215610be357610be2610b6a565b5b6000610bf184828501610bb8565b91505092915050565b610c0381610b8f565b82525050565b6000602082019050610c1e6000830184610bfa565b92915050565b600082825260208201905092915050565b7f746f6b656e732063616e6e6f742062652072656c656173656400000000000000600082015250565b6000610c6b601983610c24565b9150610c7682610c35565b602082019050919050565b60006020820190508181036000830152610c9a81610c5e565b9050919050565b610caa81610b36565b8114610cb557600080fd5b50565b600081519050610cc781610ca1565b92915050565b600060208284031215610ce357610ce2610b6a565b5b6000610cf184828501610cb8565b91505092915050565b7f4e487b7100000000000000000000000000000000000000000000000000000000600052601160045260246000fd5b6000610d3482610b36565b9150610d3f83610b36565b925082821015610d5257610d51610cfa565b5b828203905092915050565b7f4e487b7100000000000000000000000000000000000000000000000000000000600052601260045260246000fd5b6000610d9782610b36565b9150610da283610b36565b925082610db257610db1610d5d565b5b828204905092915050565b6000610dc882610b36565b9150610dd383610b36565b9250817fffffffffffffffffffffffffffffffffffffffffffffffffffffffffffffffff0483118215151615610e0c57610e0b610cfa565b5b828202905092915050565b7f4f776e61626c653a206e6577206f776e657220697320746865207a65726f206160008201527f6464726573730000000000000000000000000000000000000000000000000000602082015250565b6000610e73602683610c24565b9150610e7e82610e17565b604082019050919050565b60006020820190508181036000830152610ea281610e66565b9050919050565b6000610eb482610b36565b9150610ebf83610b36565b9250827fffffffffffffffffffffffffffffffffffffffffffffffffffffffffffffffff03821115610ef457610ef3610cfa565b5b828201905092915050565b6000604082019050610f146000830185610bfa565b610f216020830184610b40565b9392505050565b7f4f776e61626c653a2063616c6c6572206973206e6f7420746865206f776e6572600082015250565b6000610f5e602083610c24565b9150610f6982610f28565b602082019050919050565b60006020820190508181036000830152610f8d81610f51565b9050919050565b60008115159050919050565b610fa981610f94565b8114610fb457600080fd5b50565b600081519050610fc681610fa0565b92915050565b600060208284031215610fe257610fe1610b6a565b5b6000610ff084828501610fb7565b91505092915050565b7f5361666545524332303a204552433230206f7065726174696f6e20646964206e60008201527f6f74207375636365656400000000000000000000000000000000000000000000602082015250565b6000611055602a83610c24565b915061106082610ff9565b604082019050919050565b6000602082019050818103600083015261108481611048565b9050919050565b7f416464726573733a20696e73756666696369656e742062616c616e636520666f60008201527f722063616c6c0000000000000000000000000000000000000000000000000000602082015250565b60006110e7602683610c24565b91506110f28261108b565b604082019050919050565b60006020820190508181036000830152611116816110da565b9050919050565b7f416464726573733a2063616c6c20746f206e6f6e2d636f6e7472616374000000600082015250565b6000611153601d83610c24565b915061115e8261111d565b602082019050919050565b6000602082019050818103600083015261118281611146565b9050919050565b600081519050919050565b600081905092915050565b60005b838110156111bd5780820151818401526020810190506111a2565b838111156111cc576000848401525b50505050565b60006111dd82611189565b6111e78185611194565b93506111f781856020860161119f565b80840191505092915050565b600061120f82846111d2565b915081905092915050565b600081519050919050565b6000601f19601f8301169050919050565b60006112418261121a565b61124b8185610c24565b935061125b81856020860161119f565b61126481611225565b840191505092915050565b600060208201905081810360008301526112898184611236565b90509291505056fea26469706673582212205cf190f3372c973939931c02638017f8980b911369bfd69ff9cef38cf31a958364736f6c63430008090033a26469706673582212202a0584e99a8efe14ab58a0b64e758d71fd830b27450012929de93f30a97d5c1064736f6c63430008090033",
  "linkReferences": {},
  "deployedLinkReferences": {}
}