{
  "_format": "hh-sol-artifact-1",
  "contractName": "TokenVesting",
  "sourceName": "contracts/TokenVesting.sol",
  "abi": [
    {
      "inputs": [
        {
          "internalType": "address",
          "name": "_beneficiary",
          "type": "address"
        },
        {
          "internalType": "uint256",
          "name": "_start",
          "type": "uint256"
        },
        {
          "internalType": "uint256",
          "name": "_cliff",
          "type": "uint256"
        },
        {
          "internalType": "uint256",
          "name": "_releaseRate",
          "type": "uint256"
        },
        {
          "internalType": "uint256",
          "name": "_releasedInitially",
          "type": "uint256"
        }
      ],
      "stateMutability": "nonpayable",
      "type": "constructor"
    },
    {
      "anonymous": false,
      "inputs": [
        {
          "indexed": true,
          "internalType": "address",
          "name": "previousOwner",
          "type": "address"
        },
        {
          "indexed": true,
          "internalType": "address",
          "name": "newOwner",
          "type": "address"
        }
      ],
      "name": "OwnershipTransferred",
      "type": "event"
    },
    {
      "anonymous": false,
      "inputs": [
        {
          "indexed": false,
          "internalType": "uint256",
          "name": "amount",
          "type": "uint256"
        }
      ],
      "name": "Released",
      "type": "event"
    },
    {
      "inputs": [],
      "name": "beneficiary",
      "outputs": [
        {
          "internalType": "address",
          "name": "",
          "type": "address"
        }
      ],
      "stateMutability": "view",
      "type": "function"
    },
    {
      "inputs": [],
      "name": "cliff",
      "outputs": [
        {
          "internalType": "uint256",
          "name": "",
          "type": "uint256"
        }
      ],
      "stateMutability": "view",
      "type": "function"
    },
    {
      "inputs": [
        {
          "internalType": "address",
          "name": "token",
          "type": "address"
        }
      ],
      "name": "lockedAmount",
      "outputs": [
        {
          "internalType": "uint256",
          "name": "",
          "type": "uint256"
        }
      ],
      "stateMutability": "view",
      "type": "function"
    },
    {
      "inputs": [],
      "name": "owner",
      "outputs": [
        {
          "internalType": "address",
          "name": "",
          "type": "address"
        }
      ],
      "stateMutability": "view",
      "type": "function"
    },
    {
      "inputs": [
        {
          "internalType": "address",
          "name": "token",
          "type": "address"
        }
      ],
      "name": "releasableAmount",
      "outputs": [
        {
          "internalType": "uint256",
          "name": "",
          "type": "uint256"
        }
      ],
      "stateMutability": "view",
      "type": "function"
    },
    {
      "inputs": [
        {
          "internalType": "address",
          "name": "token",
          "type": "address"
        }
      ],
      "name": "release",
      "outputs": [],
      "stateMutability": "nonpayable",
      "type": "function"
    },
    {
      "inputs": [],
      "name": "releaseRate",
      "outputs": [
        {
          "internalType": "uint256",
          "name": "",
          "type": "uint256"
        }
      ],
      "stateMutability": "view",
      "type": "function"
    },
    {
      "inputs": [],
      "name": "released",
      "outputs": [
        {
          "internalType": "uint256",
          "name": "",
          "type": "uint256"
        }
      ],
      "stateMutability": "view",
      "type": "function"
    },
    {
      "inputs": [],
      "name": "releasedInitially",
      "outputs": [
        {
          "internalType": "uint256",
          "name": "",
          "type": "uint256"
        }
      ],
      "stateMutability": "view",
      "type": "function"
    },
    {
      "inputs": [],
      "name": "renounceOwnership",
      "outputs": [],
      "stateMutability": "nonpayable",
      "type": "function"
    },
    {
      "inputs": [],
      "name": "start",
      "outputs": [
        {
          "internalType": "uint256",
          "name": "",
          "type": "uint256"
        }
      ],
      "stateMutability": "view",
      "type": "function"
    },
    {
      "inputs": [
        {
          "internalType": "address",
          "name": "newOwner",
          "type": "address"
        }
      ],
      "name": "transferOwnership",
      "outputs": [],
      "stateMutability": "nonpayable",
      "type": "function"
    },
    {
      "inputs": [
        {
          "internalType": "address",
          "name": "token",
          "type": "address"
        }
      ],
      "name": "vestedAmount",
      "outputs": [
        {
          "internalType": "uint256",
          "name": "",
          "type": "uint256"
        }
      ],
      "stateMutability": "view",
      "type": "function"
    }
  ],
  "bytecode": "0x60806040523480156200001157600080fd5b5060405162001692380380620016928339818101604052810190620000379190620002a7565b620000576200004b6200011e60201b60201c565b6200012660201b60201c565b600073ffffffffffffffffffffffffffffffffffffffff168573ffffffffffffffffffffffffffffffffffffffff1614156200009257600080fd5b84600160006101000a81548173ffffffffffffffffffffffffffffffffffffffff021916908373ffffffffffffffffffffffffffffffffffffffff160217905550620000ed8385620001ea60201b620006911790919060201c565b600281905550836003819055508160048190555060008111156200011357806005819055505b5050505050620003bb565b600033905090565b60008060009054906101000a900473ffffffffffffffffffffffffffffffffffffffff169050816000806101000a81548173ffffffffffffffffffffffffffffffffffffffff021916908373ffffffffffffffffffffffffffffffffffffffff1602179055508173ffffffffffffffffffffffffffffffffffffffff168173ffffffffffffffffffffffffffffffffffffffff167f8be0079c531659141344cd1fd0a4f28419497f9722a3daafe3b4186f6b6457e060405160405180910390a35050565b60008183620001fa91906200035e565b905092915050565b600080fd5b600073ffffffffffffffffffffffffffffffffffffffff82169050919050565b6000620002348262000207565b9050919050565b620002468162000227565b81146200025257600080fd5b50565b60008151905062000266816200023b565b92915050565b6000819050919050565b62000281816200026c565b81146200028d57600080fd5b50565b600081519050620002a18162000276565b92915050565b600080600080600060a08688031215620002c657620002c562000202565b5b6000620002d68882890162000255565b9550506020620002e98882890162000290565b9450506040620002fc8882890162000290565b93505060606200030f8882890162000290565b9250506080620003228882890162000290565b9150509295509295909350565b7f4e487b7100000000000000000000000000000000000000000000000000000000600052601160045260246000fd5b60006200036b826200026c565b915062000378836200026c565b9250827fffffffffffffffffffffffffffffffffffffffffffffffffffffffffffffffff03821115620003b057620003af6200032f565b5b828201905092915050565b6112c780620003cb6000396000f3fe608060405234801561001057600080fd5b50600436106100cf5760003560e01c80638da5cb5b1161008c578063a703299811610066578063a703299814610202578063be9a655514610220578063d6e2b9531461023e578063f2fde38b1461025c576100cf565b80638da5cb5b1461019657806396132521146101b4578063a153e708146101d2576100cf565b806313d033c0146100d45780631726cbc8146100f25780631916558714610122578063384711cc1461013e57806338af3eed1461016e578063715018a61461018c575b600080fd5b6100dc610278565b6040516100e99190610b4f565b60405180910390f35b61010c60048036038101906101079190610bcd565b61027e565b6040516101199190610b4f565b60405180910390f35b61013c60048036038101906101379190610bcd565b6102bd565b005b61015860048036038101906101539190610bcd565b610390565b6040516101659190610b4f565b60405180910390f35b6101766104fb565b6040516101839190610c09565b60405180910390f35b610194610521565b005b61019e610535565b6040516101ab9190610c09565b60405180910390f35b6101bc61055e565b6040516101c99190610b4f565b60405180910390f35b6101ec60048036038101906101e79190610bcd565b610564565b6040516101f99190610b4f565b60405180910390f35b61020a6105fb565b6040516102179190610b4f565b60405180910390f35b610228610601565b6040516102359190610b4f565b60405180910390f35b610246610607565b6040516102539190610b4f565b60405180910390f35b61027660048036038101906102719190610bcd565b61060d565b005b60025481565b60008061028a83610390565b905060008111156102b2576102aa600654826106a790919063ffffffff16565b9150506102b8565b60009150505b919050565b60006102c88261027e565b90506000811161030d576040517f08c379a000000000000000000000000000000000000000000000000000000000815260040161030490610c81565b60405180910390fd5b6103228160065461069190919063ffffffff16565b60068190555061035582600160009054906101000a900473ffffffffffffffffffffffffffffffffffffffff16836106bd565b7ffb81f9b30d73d830c3544b34d827c08142579ee75710b490bab0b3995468c565816040516103849190610b4f565b60405180910390a15050565b6000808273ffffffffffffffffffffffffffffffffffffffff166370a08231306040518263ffffffff1660e01b81526004016103cc9190610c09565b60206040518083038186803b1580156103e457600080fd5b505afa1580156103f8573d6000803e3d6000fd5b505050506040513d601f19601f8201168201806040525081019061041c9190610ccd565b905060006104356006548361069190919063ffffffff16565b90506000601e6018603c806003544261044e9190610d29565b6104589190610d8c565b6104629190610d8c565b61046c9190610d8c565b6104769190610d8c565b905060025442101561048f5760055493505050506104f6565b60006104d86005546104ca60646104bc600454876104ad9190610dbd565b8861074390919063ffffffff16565b61075990919063ffffffff16565b61069190919063ffffffff16565b9050828111156104ee57829450505050506104f6565b809450505050505b919050565b600160009054906101000a900473ffffffffffffffffffffffffffffffffffffffff1681565b61052961076f565b61053360006107ed565b565b60008060009054906101000a900473ffffffffffffffffffffffffffffffffffffffff16905090565b60065481565b6000808273ffffffffffffffffffffffffffffffffffffffff166370a08231306040518263ffffffff1660e01b81526004016105a09190610c09565b60206040518083038186803b1580156105b857600080fd5b505afa1580156105cc573d6000803e3d6000fd5b505050506040513d601f19601f820116820180604052508101906105f09190610ccd565b905080915050919050565b60045481565b60035481565b60055481565b61061561076f565b600073ffffffffffffffffffffffffffffffffffffffff168173ffffffffffffffffffffffffffffffffffffffff161415610685576040517f08c379a000000000000000000000000000000000000000000000000000000000815260040161067c90610e89565b60405180910390fd5b61068e816107ed565b50565b6000818361069f9190610ea9565b905092915050565b600081836106b59190610d29565b905092915050565b61073e8363a9059cbb60e01b84846040516024016106dc929190610eff565b604051602081830303815290604052907bffffffffffffffffffffffffffffffffffffffffffffffffffffffff19166020820180517bffffffffffffffffffffffffffffffffffffffffffffffffffffffff83818316178352505050506108b1565b505050565b600081836107519190610dbd565b905092915050565b600081836107679190610d8c565b905092915050565b610777610978565b73ffffffffffffffffffffffffffffffffffffffff16610795610535565b73ffffffffffffffffffffffffffffffffffffffff16146107eb576040517f08c379a00000000000000000000000000000000000000000000000000000000081526004016107e290610f74565b60405180910390fd5b565b60008060009054906101000a900473ffffffffffffffffffffffffffffffffffffffff169050816000806101000a81548173ffffffffffffffffffffffffffffffffffffffff021916908373ffffffffffffffffffffffffffffffffffffffff1602179055508173ffffffffffffffffffffffffffffffffffffffff168173ffffffffffffffffffffffffffffffffffffffff167f8be0079c531659141344cd1fd0a4f28419497f9722a3daafe3b4186f6b6457e060405160405180910390a35050565b6000610913826040518060400160405280602081526020017f5361666545524332303a206c6f772d6c6576656c2063616c6c206661696c65648152508573ffffffffffffffffffffffffffffffffffffffff166109809092919063ffffffff16565b905060008151111561097357808060200190518101906109339190610fcc565b610972576040517f08c379a00000000000000000000000000000000000000000000000000000000081526004016109699061106b565b60405180910390fd5b5b505050565b600033905090565b606061098f8484600085610998565b90509392505050565b6060824710156109dd576040517f08c379a00000000000000000000000000000000000000000000000000000000081526004016109d4906110fd565b60405180910390fd5b6109e685610aac565b610a25576040517f08c379a0000000000000000000000000000000000000000000000000000000008152600401610a1c90611169565b60405180910390fd5b6000808673ffffffffffffffffffffffffffffffffffffffff168587604051610a4e9190611203565b60006040518083038185875af1925050503d8060008114610a8b576040519150601f19603f3d011682016040523d82523d6000602084013e610a90565b606091505b5091509150610aa0828286610acf565b92505050949350505050565b6000808273ffffffffffffffffffffffffffffffffffffffff163b119050919050565b60608315610adf57829050610b2f565b600083511115610af25782518084602001fd5b816040517f08c379a0000000000000000000000000000000000000000000000000000000008152600401610b26919061126f565b60405180910390fd5b9392505050565b6000819050919050565b610b4981610b36565b82525050565b6000602082019050610b646000830184610b40565b92915050565b600080fd5b600073ffffffffffffffffffffffffffffffffffffffff82169050919050565b6000610b9a82610b6f565b9050919050565b610baa81610b8f565b8114610bb557600080fd5b50565b600081359050610bc781610ba1565b92915050565b600060208284031215610be357610be2610b6a565b5b6000610bf184828501610bb8565b91505092915050565b610c0381610b8f565b82525050565b6000602082019050610c1e6000830184610bfa565b92915050565b600082825260208201905092915050565b7f746f6b656e732063616e6e6f742062652072656c656173656400000000000000600082015250565b6000610c6b601983610c24565b9150610c7682610c35565b602082019050919050565b60006020820190508181036000830152610c9a81610c5e565b9050919050565b610caa81610b36565b8114610cb557600080fd5b50565b600081519050610cc781610ca1565b92915050565b600060208284031215610ce357610ce2610b6a565b5b6000610cf184828501610cb8565b91505092915050565b7f4e487b7100000000000000000000000000000000000000000000000000000000600052601160045260246000fd5b6000610d3482610b36565b9150610d3f83610b36565b925082821015610d5257610d51610cfa565b5b828203905092915050565b7f4e487b7100000000000000000000000000000000000000000000000000000000600052601260045260246000fd5b6000610d9782610b36565b9150610da283610b36565b925082610db257610db1610d5d565b5b828204905092915050565b6000610dc882610b36565b9150610dd383610b36565b9250817fffffffffffffffffffffffffffffffffffffffffffffffffffffffffffffffff0483118215151615610e0c57610e0b610cfa565b5b828202905092915050565b7f4f776e61626c653a206e6577206f776e657220697320746865207a65726f206160008201527f6464726573730000000000000000000000000000000000000000000000000000602082015250565b6000610e73602683610c24565b9150610e7e82610e17565b604082019050919050565b60006020820190508181036000830152610ea281610e66565b9050919050565b6000610eb482610b36565b9150610ebf83610b36565b9250827fffffffffffffffffffffffffffffffffffffffffffffffffffffffffffffffff03821115610ef457610ef3610cfa565b5b828201905092915050565b6000604082019050610f146000830185610bfa565b610f216020830184610b40565b9392505050565b7f4f776e61626c653a2063616c6c6572206973206e6f7420746865206f776e6572600082015250565b6000610f5e602083610c24565b9150610f6982610f28565b602082019050919050565b60006020820190508181036000830152610f8d81610f51565b9050919050565b60008115159050919050565b610fa981610f94565b8114610fb457600080fd5b50565b600081519050610fc681610fa0565b92915050565b600060208284031215610fe257610fe1610b6a565b5b6000610ff084828501610fb7565b91505092915050565b7f5361666545524332303a204552433230206f7065726174696f6e20646964206e60008201527f6f74207375636365656400000000000000000000000000000000000000000000602082015250565b6000611055602a83610c24565b915061106082610ff9565b604082019050919050565b6000602082019050818103600083015261108481611048565b9050919050565b7f416464726573733a20696e73756666696369656e742062616c616e636520666f60008201527f722063616c6c0000000000000000000000000000000000000000000000000000602082015250565b60006110e7602683610c24565b91506110f28261108b565b604082019050919050565b60006020820190508181036000830152611116816110da565b9050919050565b7f416464726573733a2063616c6c20746f206e6f6e2d636f6e7472616374000000600082015250565b6000611153601d83610c24565b915061115e8261111d565b602082019050919050565b6000602082019050818103600083015261118281611146565b9050919050565b600081519050919050565b600081905092915050565b60005b838110156111bd5780820151818401526020810190506111a2565b838111156111cc576000848401525b50505050565b60006111dd82611189565b6111e78185611194565b93506111f781856020860161119f565b80840191505092915050565b600061120f82846111d2565b915081905092915050565b600081519050919050565b6000601f19601f8301169050919050565b60006112418261121a565b61124b8185610c24565b935061125b81856020860161119f565b61126481611225565b840191505092915050565b600060208201905081810360008301526112898184611236565b90509291505056fea26469706673582212205cf190f3372c973939931c02638017f8980b911369bfd69ff9cef38cf31a958364736f6c63430008090033",
  "linkReferences": {},
  "deployedLinkReferences": {}
}