{
  "_format": "hh-sol-artifact-1",
  "contractName": "TokenVesting",
  "sourceName": "contracts/TokenVesting.sol",
  "abi": [
    {
      "inputs": [
        {
          "internalType": "address",
          "name": "_beneficiary",
          "type": "address"
        },
        {
          "internalType": "uint256",
          "name": "_start",
          "type": "uint256"
        },
        {
          "internalType": "uint256",
          "name": "_cliff",
          "type": "uint256"
        },
        {
          "internalType": "uint256",
          "name": "_releaseRate",
          "type": "uint256"
        },
        {
          "internalType": "uint256",
          "name": "_releasedInitially",
          "type": "uint256"
        }
      ],
      "stateMutability": "nonpayable",
      "type": "constructor"
    },
    {
      "anonymous": false,
      "inputs": [
        {
          "indexed": true,
          "internalType": "address",
          "name": "previousOwner",
          "type": "address"
        },
        {
          "indexed": true,
          "internalType": "address",
          "name": "newOwner",
          "type": "address"
        }
      ],
      "name": "OwnershipTransferred",
      "type": "event"
    },
    {
      "anonymous": false,
      "inputs": [
        {
          "indexed": false,
          "internalType": "uint256",
          "name": "amount",
          "type": "uint256"
        }
      ],
      "name": "Released",
      "type": "event"
    },
    {
      "inputs": [],
      "name": "beneficiary",
      "outputs": [
        {
          "internalType": "address",
          "name": "",
          "type": "address"
        }
      ],
      "stateMutability": "view",
      "type": "function"
    },
    {
      "inputs": [],
      "name": "cliff",
      "outputs": [
        {
          "internalType": "uint256",
          "name": "",
          "type": "uint256"
        }
      ],
      "stateMutability": "view",
      "type": "function"
    },
    {
      "inputs": [],
      "name": "owner",
      "outputs": [
        {
          "internalType": "address",
          "name": "",
          "type": "address"
        }
      ],
      "stateMutability": "view",
      "type": "function"
    },
    {
      "inputs": [
        {
          "internalType": "address",
          "name": "token",
          "type": "address"
        }
      ],
      "name": "releasableAmount",
      "outputs": [
        {
          "internalType": "uint256",
          "name": "",
          "type": "uint256"
        }
      ],
      "stateMutability": "view",
      "type": "function"
    },
    {
      "inputs": [
        {
          "internalType": "address",
          "name": "token",
          "type": "address"
        }
      ],
      "name": "release",
      "outputs": [],
      "stateMutability": "nonpayable",
      "type": "function"
    },
    {
      "inputs": [],
      "name": "releaseRate",
      "outputs": [
        {
          "internalType": "uint256",
          "name": "",
          "type": "uint256"
        }
      ],
      "stateMutability": "view",
      "type": "function"
    },
    {
      "inputs": [],
      "name": "released",
      "outputs": [
        {
          "internalType": "uint256",
          "name": "",
          "type": "uint256"
        }
      ],
      "stateMutability": "view",
      "type": "function"
    },
    {
      "inputs": [],
      "name": "releasedInitially",
      "outputs": [
        {
          "internalType": "uint256",
          "name": "",
          "type": "uint256"
        }
      ],
      "stateMutability": "view",
      "type": "function"
    },
    {
      "inputs": [],
      "name": "renounceOwnership",
      "outputs": [],
      "stateMutability": "nonpayable",
      "type": "function"
    },
    {
      "inputs": [],
      "name": "start",
      "outputs": [
        {
          "internalType": "uint256",
          "name": "",
          "type": "uint256"
        }
      ],
      "stateMutability": "view",
      "type": "function"
    },
    {
      "inputs": [
        {
          "internalType": "address",
          "name": "newOwner",
          "type": "address"
        }
      ],
      "name": "transferOwnership",
      "outputs": [],
      "stateMutability": "nonpayable",
      "type": "function"
    },
    {
      "inputs": [
        {
          "internalType": "address",
          "name": "token",
          "type": "address"
        }
      ],
      "name": "vestedAmount",
      "outputs": [
        {
          "internalType": "uint256",
          "name": "",
          "type": "uint256"
        }
      ],
      "stateMutability": "view",
      "type": "function"
    }
  ],
  "bytecode": "0x60806040523480156200001157600080fd5b506040516200159b3803806200159b8339818101604052810190620000379190620002a7565b620000576200004b6200011e60201b60201c565b6200012660201b60201c565b600073ffffffffffffffffffffffffffffffffffffffff168573ffffffffffffffffffffffffffffffffffffffff1614156200009257600080fd5b84600160006101000a81548173ffffffffffffffffffffffffffffffffffffffff021916908373ffffffffffffffffffffffffffffffffffffffff160217905550620000ed8385620001ea60201b6200059a1790919060201c565b600281905550836003819055508160048190555060008111156200011357806006819055505b5050505050620003bb565b600033905090565b60008060009054906101000a900473ffffffffffffffffffffffffffffffffffffffff169050816000806101000a81548173ffffffffffffffffffffffffffffffffffffffff021916908373ffffffffffffffffffffffffffffffffffffffff1602179055508173ffffffffffffffffffffffffffffffffffffffff168173ffffffffffffffffffffffffffffffffffffffff167f8be0079c531659141344cd1fd0a4f28419497f9722a3daafe3b4186f6b6457e060405160405180910390a35050565b60008183620001fa91906200035e565b905092915050565b600080fd5b600073ffffffffffffffffffffffffffffffffffffffff82169050919050565b6000620002348262000207565b9050919050565b620002468162000227565b81146200025257600080fd5b50565b60008151905062000266816200023b565b92915050565b6000819050919050565b62000281816200026c565b81146200028d57600080fd5b50565b600081519050620002a18162000276565b92915050565b600080600080600060a08688031215620002c657620002c562000202565b5b6000620002d68882890162000255565b9550506020620002e98882890162000290565b9450506040620002fc8882890162000290565b93505060606200030f8882890162000290565b9250506080620003228882890162000290565b9150509295509295909350565b7f4e487b7100000000000000000000000000000000000000000000000000000000600052601160045260246000fd5b60006200036b826200026c565b915062000378836200026c565b9250827fffffffffffffffffffffffffffffffffffffffffffffffffffffffffffffffff03821115620003b057620003af6200032f565b5b828201905092915050565b6111d080620003cb6000396000f3fe608060405234801561001057600080fd5b50600436106100b45760003560e01c80638da5cb5b116100715780638da5cb5b1461017b5780639613252114610199578063a7032998146101b7578063be9a6555146101d5578063d6e2b953146101f3578063f2fde38b14610211576100b4565b806313d033c0146100b95780631726cbc8146100d75780631916558714610107578063384711cc1461012357806338af3eed14610153578063715018a614610171575b600080fd5b6100c161022d565b6040516100ce9190610a58565b60405180910390f35b6100f160048036038101906100ec9190610ad6565b610233565b6040516100fe9190610a58565b60405180910390f35b610121600480360381019061011c9190610ad6565b610272565b005b61013d60048036038101906101389190610ad6565b610345565b60405161014a9190610a58565b60405180910390f35b61015b61049b565b6040516101689190610b12565b60405180910390f35b6101796104c1565b005b6101836104d5565b6040516101909190610b12565b60405180910390f35b6101a16104fe565b6040516101ae9190610a58565b60405180910390f35b6101bf610504565b6040516101cc9190610a58565b60405180910390f35b6101dd61050a565b6040516101ea9190610a58565b60405180910390f35b6101fb610510565b6040516102089190610a58565b60405180910390f35b61022b60048036038101906102269190610ad6565b610516565b005b60025481565b60008061023f83610345565b905060008111156102675761025f600654826105b090919063ffffffff16565b91505061026d565b60009150505b919050565b600061027d82610233565b9050600081116102c2576040517f08c379a00000000000000000000000000000000000000000000000000000000081526004016102b990610b8a565b60405180910390fd5b6102d78160065461059a90919063ffffffff16565b60068190555061030a82600160009054906101000a900473ffffffffffffffffffffffffffffffffffffffff16836105c6565b7ffb81f9b30d73d830c3544b34d827c08142579ee75710b490bab0b3995468c565816040516103399190610a58565b60405180910390a15050565b6000808273ffffffffffffffffffffffffffffffffffffffff166370a08231306040518263ffffffff1660e01b81526004016103819190610b12565b60206040518083038186803b15801561039957600080fd5b505afa1580156103ad573d6000803e3d6000fd5b505050506040513d601f19601f820116820180604052508101906103d19190610bd6565b905060006103ea6006548361059a90919063ffffffff16565b90506000601e6018603c80600354426104039190610c32565b61040d9190610c95565b6104179190610c95565b6104219190610c95565b61042b9190610c95565b90506002544210156104435760009350505050610496565b6000610478606461046a6004548561045b9190610cc6565b8661064c90919063ffffffff16565b61066290919063ffffffff16565b90508281111561048e5782945050505050610496565b809450505050505b919050565b600160009054906101000a900473ffffffffffffffffffffffffffffffffffffffff1681565b6104c9610678565b6104d360006106f6565b565b60008060009054906101000a900473ffffffffffffffffffffffffffffffffffffffff16905090565b60065481565b60045481565b60035481565b60055481565b61051e610678565b600073ffffffffffffffffffffffffffffffffffffffff168173ffffffffffffffffffffffffffffffffffffffff16141561058e576040517f08c379a000000000000000000000000000000000000000000000000000000000815260040161058590610d92565b60405180910390fd5b610597816106f6565b50565b600081836105a89190610db2565b905092915050565b600081836105be9190610c32565b905092915050565b6106478363a9059cbb60e01b84846040516024016105e5929190610e08565b604051602081830303815290604052907bffffffffffffffffffffffffffffffffffffffffffffffffffffffff19166020820180517bffffffffffffffffffffffffffffffffffffffffffffffffffffffff83818316178352505050506107ba565b505050565b6000818361065a9190610cc6565b905092915050565b600081836106709190610c95565b905092915050565b610680610881565b73ffffffffffffffffffffffffffffffffffffffff1661069e6104d5565b73ffffffffffffffffffffffffffffffffffffffff16146106f4576040517f08c379a00000000000000000000000000000000000000000000000000000000081526004016106eb90610e7d565b60405180910390fd5b565b60008060009054906101000a900473ffffffffffffffffffffffffffffffffffffffff169050816000806101000a81548173ffffffffffffffffffffffffffffffffffffffff021916908373ffffffffffffffffffffffffffffffffffffffff1602179055508173ffffffffffffffffffffffffffffffffffffffff168173ffffffffffffffffffffffffffffffffffffffff167f8be0079c531659141344cd1fd0a4f28419497f9722a3daafe3b4186f6b6457e060405160405180910390a35050565b600061081c826040518060400160405280602081526020017f5361666545524332303a206c6f772d6c6576656c2063616c6c206661696c65648152508573ffffffffffffffffffffffffffffffffffffffff166108899092919063ffffffff16565b905060008151111561087c578080602001905181019061083c9190610ed5565b61087b576040517f08c379a000000000000000000000000000000000000000000000000000000000815260040161087290610f74565b60405180910390fd5b5b505050565b600033905090565b606061089884846000856108a1565b90509392505050565b6060824710156108e6576040517f08c379a00000000000000000000000000000000000000000000000000000000081526004016108dd90611006565b60405180910390fd5b6108ef856109b5565b61092e576040517f08c379a000000000000000000000000000000000000000000000000000000000815260040161092590611072565b60405180910390fd5b6000808673ffffffffffffffffffffffffffffffffffffffff168587604051610957919061110c565b60006040518083038185875af1925050503d8060008114610994576040519150601f19603f3d011682016040523d82523d6000602084013e610999565b606091505b50915091506109a98282866109d8565b92505050949350505050565b6000808273ffffffffffffffffffffffffffffffffffffffff163b119050919050565b606083156109e857829050610a38565b6000835111156109fb5782518084602001fd5b816040517f08c379a0000000000000000000000000000000000000000000000000000000008152600401610a2f9190611178565b60405180910390fd5b9392505050565b6000819050919050565b610a5281610a3f565b82525050565b6000602082019050610a6d6000830184610a49565b92915050565b600080fd5b600073ffffffffffffffffffffffffffffffffffffffff82169050919050565b6000610aa382610a78565b9050919050565b610ab381610a98565b8114610abe57600080fd5b50565b600081359050610ad081610aaa565b92915050565b600060208284031215610aec57610aeb610a73565b5b6000610afa84828501610ac1565b91505092915050565b610b0c81610a98565b82525050565b6000602082019050610b276000830184610b03565b92915050565b600082825260208201905092915050565b7f746f6b656e732063616e6e6f742062652072656c656173656400000000000000600082015250565b6000610b74601983610b2d565b9150610b7f82610b3e565b602082019050919050565b60006020820190508181036000830152610ba381610b67565b9050919050565b610bb381610a3f565b8114610bbe57600080fd5b50565b600081519050610bd081610baa565b92915050565b600060208284031215610bec57610beb610a73565b5b6000610bfa84828501610bc1565b91505092915050565b7f4e487b7100000000000000000000000000000000000000000000000000000000600052601160045260246000fd5b6000610c3d82610a3f565b9150610c4883610a3f565b925082821015610c5b57610c5a610c03565b5b828203905092915050565b7f4e487b7100000000000000000000000000000000000000000000000000000000600052601260045260246000fd5b6000610ca082610a3f565b9150610cab83610a3f565b925082610cbb57610cba610c66565b5b828204905092915050565b6000610cd182610a3f565b9150610cdc83610a3f565b9250817fffffffffffffffffffffffffffffffffffffffffffffffffffffffffffffffff0483118215151615610d1557610d14610c03565b5b828202905092915050565b7f4f776e61626c653a206e6577206f776e657220697320746865207a65726f206160008201527f6464726573730000000000000000000000000000000000000000000000000000602082015250565b6000610d7c602683610b2d565b9150610d8782610d20565b604082019050919050565b60006020820190508181036000830152610dab81610d6f565b9050919050565b6000610dbd82610a3f565b9150610dc883610a3f565b9250827fffffffffffffffffffffffffffffffffffffffffffffffffffffffffffffffff03821115610dfd57610dfc610c03565b5b828201905092915050565b6000604082019050610e1d6000830185610b03565b610e2a6020830184610a49565b9392505050565b7f4f776e61626c653a2063616c6c6572206973206e6f7420746865206f776e6572600082015250565b6000610e67602083610b2d565b9150610e7282610e31565b602082019050919050565b60006020820190508181036000830152610e9681610e5a565b9050919050565b60008115159050919050565b610eb281610e9d565b8114610ebd57600080fd5b50565b600081519050610ecf81610ea9565b92915050565b600060208284031215610eeb57610eea610a73565b5b6000610ef984828501610ec0565b91505092915050565b7f5361666545524332303a204552433230206f7065726174696f6e20646964206e60008201527f6f74207375636365656400000000000000000000000000000000000000000000602082015250565b6000610f5e602a83610b2d565b9150610f6982610f02565b604082019050919050565b60006020820190508181036000830152610f8d81610f51565b9050919050565b7f416464726573733a20696e73756666696369656e742062616c616e636520666f60008201527f722063616c6c0000000000000000000000000000000000000000000000000000602082015250565b6000610ff0602683610b2d565b9150610ffb82610f94565b604082019050919050565b6000602082019050818103600083015261101f81610fe3565b9050919050565b7f416464726573733a2063616c6c20746f206e6f6e2d636f6e7472616374000000600082015250565b600061105c601d83610b2d565b915061106782611026565b602082019050919050565b6000602082019050818103600083015261108b8161104f565b9050919050565b600081519050919050565b600081905092915050565b60005b838110156110c65780820151818401526020810190506110ab565b838111156110d5576000848401525b50505050565b60006110e682611092565b6110f0818561109d565b93506111008185602086016110a8565b80840191505092915050565b600061111882846110db565b915081905092915050565b600081519050919050565b6000601f19601f8301169050919050565b600061114a82611123565b6111548185610b2d565b93506111648185602086016110a8565b61116d8161112e565b840191505092915050565b60006020820190508181036000830152611192818461113f565b90509291505056fea26469706673582212204211320ccb1cd3ae994b8a3f05a94663e914b6b98256aad1256c73dd9a81a75b64736f6c63430008090033",
  "linkReferences": {},
  "deployedLinkReferences": {}
}